{
  "_format": "hh-sol-artifact-1",
  "contractName": "NFT",
  "sourceName": "contracts/NFT.sol",
  "abi": [
    {
      "inputs": [],
      "stateMutability": "nonpayable",
      "type": "constructor"
    },
    {
      "inputs": [],
      "name": "ApprovalCallerNotOwnerNorApproved",
      "type": "error"
    },
    {
      "inputs": [],
      "name": "ApprovalQueryForNonexistentToken",
      "type": "error"
    },
    {
      "inputs": [],
      "name": "ApprovalToCurrentOwner",
      "type": "error"
    },
    {
      "inputs": [],
      "name": "ApproveToCaller",
      "type": "error"
    },
    {
      "inputs": [],
      "name": "BalanceQueryForZeroAddress",
      "type": "error"
    },
    {
      "inputs": [
        {
          "internalType": "string",
          "name": "error",
          "type": "string"
        }
      ],
      "name": "MintFinished",
      "type": "error"
    },
    {
      "inputs": [
        {
          "internalType": "string",
          "name": "error",
          "type": "string"
        }
      ],
      "name": "MintNotStarted",
      "type": "error"
    },
    {
      "inputs": [
        {
          "internalType": "string",
          "name": "error",
          "type": "string"
        }
      ],
      "name": "MintPriceNotPaid",
      "type": "error"
    },
    {
      "inputs": [],
      "name": "MintToZeroAddress",
      "type": "error"
    },
    {
      "inputs": [],
      "name": "MintZeroQuantity",
      "type": "error"
    },
    {
      "inputs": [],
      "name": "OwnerQueryForNonexistentToken",
      "type": "error"
    },
    {
      "inputs": [],
      "name": "TransferCallerNotOwnerNorApproved",
      "type": "error"
    },
    {
      "inputs": [],
      "name": "TransferFromIncorrectOwner",
      "type": "error"
    },
    {
      "inputs": [],
      "name": "TransferToNonERC721ReceiverImplementer",
      "type": "error"
    },
    {
      "inputs": [],
      "name": "TransferToZeroAddress",
      "type": "error"
    },
    {
      "inputs": [],
      "name": "URIQueryForNonexistentToken",
      "type": "error"
    },
    {
      "anonymous": false,
      "inputs": [
        {
          "indexed": true,
          "internalType": "address",
          "name": "owner",
          "type": "address"
        },
        {
          "indexed": true,
          "internalType": "address",
          "name": "approved",
          "type": "address"
        },
        {
          "indexed": true,
          "internalType": "uint256",
          "name": "tokenId",
          "type": "uint256"
        }
      ],
      "name": "Approval",
      "type": "event"
    },
    {
      "anonymous": false,
      "inputs": [
        {
          "indexed": true,
          "internalType": "address",
          "name": "owner",
          "type": "address"
        },
        {
          "indexed": true,
          "internalType": "address",
          "name": "operator",
          "type": "address"
        },
        {
          "indexed": false,
          "internalType": "bool",
          "name": "approved",
          "type": "bool"
        }
      ],
      "name": "ApprovalForAll",
      "type": "event"
    },
    {
      "anonymous": false,
      "inputs": [
        {
          "indexed": true,
          "internalType": "address",
          "name": "from",
          "type": "address"
        },
        {
          "indexed": true,
          "internalType": "address",
          "name": "to",
          "type": "address"
        },
        {
          "indexed": true,
          "internalType": "uint256",
          "name": "tokenId",
          "type": "uint256"
        }
      ],
      "name": "Transfer",
      "type": "event"
    },
    {
      "inputs": [
        {
          "internalType": "address",
          "name": "to",
          "type": "address"
        },
        {
          "internalType": "uint256",
          "name": "tokenId",
          "type": "uint256"
        }
      ],
      "name": "approve",
      "outputs": [],
      "stateMutability": "nonpayable",
      "type": "function"
    },
    {
      "inputs": [
        {
          "internalType": "address",
          "name": "owner",
          "type": "address"
        }
      ],
      "name": "balanceOf",
      "outputs": [
        {
          "internalType": "uint256",
          "name": "",
          "type": "uint256"
        }
      ],
      "stateMutability": "view",
      "type": "function"
    },
    {
      "inputs": [
        {
          "internalType": "uint256",
          "name": "tokenId",
          "type": "uint256"
        }
      ],
      "name": "getApproved",
      "outputs": [
        {
          "internalType": "address",
          "name": "",
          "type": "address"
        }
      ],
      "stateMutability": "view",
      "type": "function"
    },
    {
      "inputs": [],
      "name": "getPrice",
      "outputs": [
        {
          "internalType": "uint256",
          "name": "",
          "type": "uint256"
        }
      ],
      "stateMutability": "view",
      "type": "function"
    },
    {
      "inputs": [
        {
          "internalType": "address",
          "name": "owner",
          "type": "address"
        },
        {
          "internalType": "address",
          "name": "operator",
          "type": "address"
        }
      ],
      "name": "isApprovedForAll",
      "outputs": [
        {
          "internalType": "bool",
          "name": "",
          "type": "bool"
        }
      ],
      "stateMutability": "view",
      "type": "function"
    },
    {
      "inputs": [
        {
          "internalType": "address",
          "name": "_address",
          "type": "address"
        }
      ],
      "name": "isContractOwner",
      "outputs": [
        {
          "internalType": "bool",
          "name": "",
          "type": "bool"
        }
      ],
      "stateMutability": "view",
      "type": "function"
    },
    {
      "inputs": [],
      "name": "isMintable",
      "outputs": [
        {
          "internalType": "bool",
          "name": "",
          "type": "bool"
        }
      ],
      "stateMutability": "view",
      "type": "function"
    },
    {
      "inputs": [],
      "name": "maxSupply",
      "outputs": [
        {
          "internalType": "uint256",
          "name": "",
          "type": "uint256"
        }
      ],
      "stateMutability": "view",
      "type": "function"
    },
    {
      "inputs": [],
      "name": "mint",
      "outputs": [],
      "stateMutability": "payable",
      "type": "function"
    },
    {
      "inputs": [],
      "name": "name",
      "outputs": [
        {
          "internalType": "string",
          "name": "",
          "type": "string"
        }
      ],
      "stateMutability": "view",
      "type": "function"
    },
    {
      "inputs": [
        {
          "internalType": "uint256",
          "name": "tokenId",
          "type": "uint256"
        }
      ],
      "name": "ownerOf",
      "outputs": [
        {
          "internalType": "address",
          "name": "",
          "type": "address"
        }
      ],
      "stateMutability": "view",
      "type": "function"
    },
    {
      "inputs": [
        {
          "internalType": "address",
          "name": "from",
          "type": "address"
        },
        {
          "internalType": "address",
          "name": "to",
          "type": "address"
        },
        {
          "internalType": "uint256",
          "name": "tokenId",
          "type": "uint256"
        }
      ],
      "name": "safeTransferFrom",
      "outputs": [],
      "stateMutability": "nonpayable",
      "type": "function"
    },
    {
      "inputs": [
        {
          "internalType": "address",
          "name": "from",
          "type": "address"
        },
        {
          "internalType": "address",
          "name": "to",
          "type": "address"
        },
        {
          "internalType": "uint256",
          "name": "tokenId",
          "type": "uint256"
        },
        {
          "internalType": "bytes",
          "name": "_data",
          "type": "bytes"
        }
      ],
      "name": "safeTransferFrom",
      "outputs": [],
      "stateMutability": "nonpayable",
      "type": "function"
    },
    {
      "inputs": [
        {
          "internalType": "address",
          "name": "operator",
          "type": "address"
        },
        {
          "internalType": "bool",
          "name": "approved",
          "type": "bool"
        }
      ],
      "name": "setApprovalForAll",
      "outputs": [],
      "stateMutability": "nonpayable",
      "type": "function"
    },
    {
      "inputs": [
        {
          "internalType": "string",
          "name": "baseURI",
          "type": "string"
        }
      ],
      "name": "setBaseURI",
      "outputs": [],
      "stateMutability": "nonpayable",
      "type": "function"
    },
    {
      "inputs": [
        {
          "internalType": "uint256",
          "name": "_newPrice",
          "type": "uint256"
        }
      ],
      "name": "setPrice",
      "outputs": [],
      "stateMutability": "nonpayable",
      "type": "function"
    },
    {
      "inputs": [
        {
          "internalType": "bytes4",
          "name": "interfaceId",
          "type": "bytes4"
        }
      ],
      "name": "supportsInterface",
      "outputs": [
        {
          "internalType": "bool",
          "name": "",
          "type": "bool"
        }
      ],
      "stateMutability": "view",
      "type": "function"
    },
    {
      "inputs": [],
      "name": "symbol",
      "outputs": [
        {
          "internalType": "string",
          "name": "",
          "type": "string"
        }
      ],
      "stateMutability": "view",
      "type": "function"
    },
    {
      "inputs": [
        {
          "internalType": "bool",
          "name": "mintable",
          "type": "bool"
        }
      ],
      "name": "toggleMintable",
      "outputs": [],
      "stateMutability": "nonpayable",
      "type": "function"
    },
    {
      "inputs": [
        {
          "internalType": "uint256",
          "name": "tokenId",
          "type": "uint256"
        }
      ],
      "name": "tokenURI",
      "outputs": [
        {
          "internalType": "string",
          "name": "",
          "type": "string"
        }
      ],
      "stateMutability": "view",
      "type": "function"
    },
    {
      "inputs": [],
      "name": "totalMinted",
      "outputs": [
        {
          "internalType": "uint256",
          "name": "",
          "type": "uint256"
        }
      ],
      "stateMutability": "view",
      "type": "function"
    },
    {
      "inputs": [],
      "name": "totalSupply",
      "outputs": [
        {
          "internalType": "uint256",
          "name": "",
          "type": "uint256"
        }
      ],
      "stateMutability": "view",
      "type": "function"
    },
    {
      "inputs": [
        {
          "internalType": "address",
          "name": "from",
          "type": "address"
        },
        {
          "internalType": "address",
          "name": "to",
          "type": "address"
        },
        {
          "internalType": "uint256",
          "name": "tokenId",
          "type": "uint256"
        }
      ],
      "name": "transferFrom",
      "outputs": [],
      "stateMutability": "nonpayable",
      "type": "function"
    },
    {
      "inputs": [],
      "name": "withdrawAll",
      "outputs": [],
      "stateMutability": "payable",
      "type": "function"
    }
  ],
  "bytecode": "0x608060405260405180608001604052806052815260200162003333605291396009908051906020019062000035929190620002e6565b506001600a60006101000a81548160ff021916908315150217905550610190600b55670de0b6b3a7640000600c553480156200007057600080fd5b506040518060400160405280600981526020017f4561737465724e465400000000000000000000000000000000000000000000008152506040518060400160405280600981526020017f4541535445524e465400000000000000000000000000000000000000000000008152508160029080519060200190620000f5929190620002e6565b5080600390805190602001906200010e929190620002e6565b506200011f620002dd60201b60201c565b60008190555050506001600860007339beb60bc4c1b8b0ebeedc515c7a56e7dfb3a5a973ffffffffffffffffffffffffffffffffffffffff1673ffffffffffffffffffffffffffffffffffffffff16815260200190815260200160002060006101000a81548160ff021916908315150217905550600160086000739ead888876b3978e8b138d4b6416111255b89e0373ffffffffffffffffffffffffffffffffffffffff1673ffffffffffffffffffffffffffffffffffffffff16815260200190815260200160002060006101000a81548160ff02191690831515021790555060016008600073aeb37ff5c6a7f43e721849873eda2dae2b6871f973ffffffffffffffffffffffffffffffffffffffff1673ffffffffffffffffffffffffffffffffffffffff16815260200190815260200160002060006101000a81548160ff0219169083151502179055506001600860007377366b0b45f6c67f181bdfdf1c19e2fa2733db7373ffffffffffffffffffffffffffffffffffffffff1673ffffffffffffffffffffffffffffffffffffffff16815260200190815260200160002060006101000a81548160ff021916908315150217905550620003fb565b60006001905090565b828054620002f49062000396565b90600052602060002090601f01602090048101928262000318576000855562000364565b82601f106200033357805160ff191683800117855562000364565b8280016001018555821562000364579182015b828111156200036357825182559160200191906001019062000346565b5b50905062000373919062000377565b5090565b5b808211156200039257600081600090555060010162000378565b5090565b60006002820490506001821680620003af57607f821691505b60208210811415620003c657620003c5620003cc565b5b50919050565b7f4e487b7100000000000000000000000000000000000000000000000000000000600052602260045260246000fd5b612f28806200040b6000396000f3fe60806040526004361061014b5760003560e01c8063853828b6116100b6578063b88d4fde1161006f578063b88d4fde14610450578063c87b56dd14610479578063d5abeb01146104b6578063de117688146104e1578063e985e9c51461051e578063eccfa9fb1461055b5761014b565b8063853828b61461037357806391b7f5ed1461037d57806395d89b41146103a657806398d5fdca146103d1578063a22cb465146103fc578063a2309ff8146104255761014b565b806323b872dd1161010857806323b872dd1461025357806342842e0e1461027c57806346b45af7146102a557806355f804b3146102d05780636352211e146102f957806370a08231146103365761014b565b806301ffc9a71461015057806306fdde031461018d578063081812fc146101b8578063095ea7b3146101f55780631249c58b1461021e57806318160ddd14610228575b600080fd5b34801561015c57600080fd5b5061017760048036038101906101729190612581565b610584565b60405161018491906128d1565b60405180910390f35b34801561019957600080fd5b506101a2610666565b6040516101af91906128ec565b60405180910390f35b3480156101c457600080fd5b506101df60048036038101906101da9190612614565b6106f8565b6040516101ec919061286a565b60405180910390f35b34801561020157600080fd5b5061021c6004803603810190610217919061251c565b610774565b005b61022661087f565b005b34801561023457600080fd5b5061023d61096b565b60405161024a919061298e565b60405180910390f35b34801561025f57600080fd5b5061027a60048036038101906102759190612416565b610982565b005b34801561028857600080fd5b506102a3600480360381019061029e9190612416565b610992565b005b3480156102b157600080fd5b506102ba6109b2565b6040516102c791906128d1565b60405180910390f35b3480156102dc57600080fd5b506102f760048036038101906102f291906125d3565b6109c5565b005b34801561030557600080fd5b50610320600480360381019061031b9190612614565b610a72565b60405161032d919061286a565b60405180910390f35b34801561034257600080fd5b5061035d600480360381019061035891906123b1565b610a88565b60405161036a919061298e565b60405180910390f35b61037b610b58565b005b34801561038957600080fd5b506103a4600480360381019061039f9190612614565b610c32565b005b3480156103b257600080fd5b506103bb610ccf565b6040516103c891906128ec565b60405180910390f35b3480156103dd57600080fd5b506103e6610d61565b6040516103f3919061298e565b60405180910390f35b34801561040857600080fd5b50610423600480360381019061041e91906124e0565b610d6b565b005b34801561043157600080fd5b5061043a610ee3565b604051610447919061298e565b60405180910390f35b34801561045c57600080fd5b5061047760048036038101906104729190612465565b610ef6565b005b34801561048557600080fd5b506104a0600480360381019061049b9190612614565b610f72565b6040516104ad91906128ec565b60405180910390f35b3480156104c257600080fd5b506104cb610fe5565b6040516104d8919061298e565b60405180910390f35b3480156104ed57600080fd5b50610508600480360381019061050391906123b1565b610feb565b60405161051591906128d1565b60405180910390f35b34801561052a57600080fd5b50610545600480360381019061054091906123da565b611041565b60405161055291906128d1565b60405180910390f35b34801561056757600080fd5b50610582600480360381019061057d9190612558565b6110d5565b005b60007f80ac58cd000000000000000000000000000000000000000000000000000000007bffffffffffffffffffffffffffffffffffffffffffffffffffffffff1916827bffffffffffffffffffffffffffffffffffffffffffffffffffffffff1916148061064f57507f5b5e139f000000000000000000000000000000000000000000000000000000007bffffffffffffffffffffffffffffffffffffffffffffffffffffffff1916827bffffffffffffffffffffffffffffffffffffffffffffffffffffffff1916145b8061065f575061065e82611185565b5b9050919050565b60606002805461067590612bf9565b80601f01602080910402602001604051908101604052809291908181526020018280546106a190612bf9565b80156106ee5780601f106106c3576101008083540402835291602001916106ee565b820191906000526020600020905b8154815290600101906020018083116106d157829003601f168201915b5050505050905090565b6000610703826111ef565b610739576040517fcf4700e400000000000000000000000000000000000000000000000000000000815260040160405180910390fd5b6006600083815260200190815260200160002060009054906101000a900473ffffffffffffffffffffffffffffffffffffffff169050919050565b600061077f82610a72565b90508073ffffffffffffffffffffffffffffffffffffffff168373ffffffffffffffffffffffffffffffffffffffff1614156107e7576040517f943f7b8c00000000000000000000000000000000000000000000000000000000815260040160405180910390fd5b8073ffffffffffffffffffffffffffffffffffffffff1661080661123d565b73ffffffffffffffffffffffffffffffffffffffff161415801561083857506108368161083161123d565b611041565b155b1561086f576040517fcfb3b94200000000000000000000000000000000000000000000000000000000815260040160405180910390fd5b61087a838383611245565b505050565b600a60009054906101000a900460ff166108ce576040517fc07ac9080000000000000000000000000000000000000000000000000000000081526004016108c59061294e565b60405180910390fd5b600b546108d96112f7565b10610919576040517ffcccdb630000000000000000000000000000000000000000000000000000000081526004016109109061290e565b60405180910390fd5b600c5434101561095e576040517ff0cc4ef60000000000000000000000000000000000000000000000000000000081526004016109559061292e565b60405180910390fd5b61096933600161130a565b565b6000610975611328565b6001546000540303905090565b61098d838383611331565b505050565b6109ad83838360405180602001604052806000815250610ef6565b505050565b600a60009054906101000a900460ff1681565b600860006109d161123d565b73ffffffffffffffffffffffffffffffffffffffff1673ffffffffffffffffffffffffffffffffffffffff16815260200190815260200160002060009054906101000a900460ff16610a58576040517f08c379a0000000000000000000000000000000000000000000000000000000008152600401610a4f9061296e565b60405180910390fd5b8060099080519060200190610a6e929190612192565b5050565b6000610a7d826117e7565b600001519050919050565b60008073ffffffffffffffffffffffffffffffffffffffff168273ffffffffffffffffffffffffffffffffffffffff161415610af0576040517f8f4eb60400000000000000000000000000000000000000000000000000000000815260040160405180910390fd5b600560008373ffffffffffffffffffffffffffffffffffffffff1673ffffffffffffffffffffffffffffffffffffffff16815260200190815260200160002060000160009054906101000a900467ffffffffffffffff1667ffffffffffffffff169050919050565b60086000610b6461123d565b73ffffffffffffffffffffffffffffffffffffffff1673ffffffffffffffffffffffffffffffffffffffff16815260200190815260200160002060009054906101000a900460ff16610beb576040517f08c379a0000000000000000000000000000000000000000000000000000000008152600401610be29061296e565b60405180910390fd5b610bf361123d565b73ffffffffffffffffffffffffffffffffffffffff166108fc479081150290604051600060405180830381858888f19350505050610c3057600080fd5b565b60086000610c3e61123d565b73ffffffffffffffffffffffffffffffffffffffff1673ffffffffffffffffffffffffffffffffffffffff16815260200190815260200160002060009054906101000a900460ff16610cc5576040517f08c379a0000000000000000000000000000000000000000000000000000000008152600401610cbc9061296e565b60405180910390fd5b80600c8190555050565b606060038054610cde90612bf9565b80601f0160208091040260200160405190810160405280929190818152602001828054610d0a90612bf9565b8015610d575780601f10610d2c57610100808354040283529160200191610d57565b820191906000526020600020905b815481529060010190602001808311610d3a57829003601f168201915b5050505050905090565b6000600c54905090565b610d7361123d565b73ffffffffffffffffffffffffffffffffffffffff168273ffffffffffffffffffffffffffffffffffffffff161415610dd8576040517fb06307db00000000000000000000000000000000000000000000000000000000815260040160405180910390fd5b8060076000610de561123d565b73ffffffffffffffffffffffffffffffffffffffff1673ffffffffffffffffffffffffffffffffffffffff16815260200190815260200160002060008473ffffffffffffffffffffffffffffffffffffffff1673ffffffffffffffffffffffffffffffffffffffff16815260200190815260200160002060006101000a81548160ff0219169083151502179055508173ffffffffffffffffffffffffffffffffffffffff16610e9261123d565b73ffffffffffffffffffffffffffffffffffffffff167f17307eab39ab6107e8899845ad3d59bd9653f200f220920489ca2b5937696c3183604051610ed791906128d1565b60405180910390a35050565b6000610eed611328565b60005403905090565b610f01848484611331565b610f208373ffffffffffffffffffffffffffffffffffffffff16611a76565b8015610f355750610f3384848484611a99565b155b15610f6c576040517fd1a57ed600000000000000000000000000000000000000000000000000000000815260040160405180910390fd5b50505050565b6060610f7d826111ef565b610fb3576040517fa14c4b5000000000000000000000000000000000000000000000000000000000815260040160405180910390fd5b6009610fbe83611bf9565b604051602001610fcf92919061283b565b6040516020818303038152906040529050919050565b600b5481565b6000600860008373ffffffffffffffffffffffffffffffffffffffff1673ffffffffffffffffffffffffffffffffffffffff16815260200190815260200160002060009054906101000a900460ff169050919050565b6000600760008473ffffffffffffffffffffffffffffffffffffffff1673ffffffffffffffffffffffffffffffffffffffff16815260200190815260200160002060008373ffffffffffffffffffffffffffffffffffffffff1673ffffffffffffffffffffffffffffffffffffffff16815260200190815260200160002060009054906101000a900460ff16905092915050565b600860006110e161123d565b73ffffffffffffffffffffffffffffffffffffffff1673ffffffffffffffffffffffffffffffffffffffff16815260200190815260200160002060009054906101000a900460ff16611168576040517f08c379a000000000000000000000000000000000000000000000000000000000815260040161115f9061296e565b60405180910390fd5b80600a60006101000a81548160ff02191690831515021790555050565b60007f01ffc9a7000000000000000000000000000000000000000000000000000000007bffffffffffffffffffffffffffffffffffffffffffffffffffffffff1916827bffffffffffffffffffffffffffffffffffffffffffffffffffffffff1916149050919050565b6000816111fa611328565b11158015611209575060005482105b8015611236575060046000838152602001908152602001600020600001601c9054906101000a900460ff16155b9050919050565b600033905090565b826006600084815260200190815260200160002060006101000a81548173ffffffffffffffffffffffffffffffffffffffff021916908373ffffffffffffffffffffffffffffffffffffffff160217905550818373ffffffffffffffffffffffffffffffffffffffff168273ffffffffffffffffffffffffffffffffffffffff167f8c5be1e5ebec7d5bd14f71427d1e84f3dd0314c0f7b2291e5b200ac8c7c3b92560405160405180910390a4505050565b6000611301611328565b60005403905090565b611324828260405180602001604052806000815250611da6565b5050565b60006001905090565b600061133c826117e7565b90508373ffffffffffffffffffffffffffffffffffffffff16816000015173ffffffffffffffffffffffffffffffffffffffff16146113a7576040517fa114810000000000000000000000000000000000000000000000000000000000815260040160405180910390fd5b60008473ffffffffffffffffffffffffffffffffffffffff166113c861123d565b73ffffffffffffffffffffffffffffffffffffffff1614806113f757506113f6856113f161123d565b611041565b5b8061143c575061140561123d565b73ffffffffffffffffffffffffffffffffffffffff16611424846106f8565b73ffffffffffffffffffffffffffffffffffffffff16145b905080611475576040517f59c896be00000000000000000000000000000000000000000000000000000000815260040160405180910390fd5b600073ffffffffffffffffffffffffffffffffffffffff168473ffffffffffffffffffffffffffffffffffffffff1614156114dc576040517fea553b3400000000000000000000000000000000000000000000000000000000815260040160405180910390fd5b6114e98585856001611db8565b6114f560008487611245565b6001600560008773ffffffffffffffffffffffffffffffffffffffff1673ffffffffffffffffffffffffffffffffffffffff16815260200190815260200160002060000160008282829054906101000a900467ffffffffffffffff160392506101000a81548167ffffffffffffffff021916908367ffffffffffffffff1602179055506001600560008673ffffffffffffffffffffffffffffffffffffffff1673ffffffffffffffffffffffffffffffffffffffff16815260200190815260200160002060000160008282829054906101000a900467ffffffffffffffff160192506101000a81548167ffffffffffffffff021916908367ffffffffffffffff1602179055506000600460008581526020019081526020016000209050848160000160006101000a81548173ffffffffffffffffffffffffffffffffffffffff021916908373ffffffffffffffffffffffffffffffffffffffff160217905550428160000160146101000a81548167ffffffffffffffff021916908367ffffffffffffffff16021790555060006001850190506000600460008381526020019081526020016000209050600073ffffffffffffffffffffffffffffffffffffffff168160000160009054906101000a900473ffffffffffffffffffffffffffffffffffffffff1673ffffffffffffffffffffffffffffffffffffffff16141561177557600054821461177457878160000160006101000a81548173ffffffffffffffffffffffffffffffffffffffff021916908373ffffffffffffffffffffffffffffffffffffffff16021790555084602001518160000160146101000a81548167ffffffffffffffff021916908367ffffffffffffffff1602179055505b5b505050828473ffffffffffffffffffffffffffffffffffffffff168673ffffffffffffffffffffffffffffffffffffffff167fddf252ad1be2c89b69c2b068fc378daa952ba7f163c4a11628f55a4df523b3ef60405160405180910390a46117e08585856001611dbe565b5050505050565b6117ef612218565b6000829050806117fd611328565b1115801561180c575060005481105b15611a3f576000600460008381526020019081526020016000206040518060600160405290816000820160009054906101000a900473ffffffffffffffffffffffffffffffffffffffff1673ffffffffffffffffffffffffffffffffffffffff1673ffffffffffffffffffffffffffffffffffffffff1681526020016000820160149054906101000a900467ffffffffffffffff1667ffffffffffffffff1667ffffffffffffffff16815260200160008201601c9054906101000a900460ff16151515158152505090508060400151611a3d57600073ffffffffffffffffffffffffffffffffffffffff16816000015173ffffffffffffffffffffffffffffffffffffffff1614611921578092505050611a71565b5b600115611a3c57818060019003925050600460008381526020019081526020016000206040518060600160405290816000820160009054906101000a900473ffffffffffffffffffffffffffffffffffffffff1673ffffffffffffffffffffffffffffffffffffffff1673ffffffffffffffffffffffffffffffffffffffff1681526020016000820160149054906101000a900467ffffffffffffffff1667ffffffffffffffff1667ffffffffffffffff16815260200160008201601c9054906101000a900460ff1615151515815250509050600073ffffffffffffffffffffffffffffffffffffffff16816000015173ffffffffffffffffffffffffffffffffffffffff1614611a37578092505050611a71565b611922565b5b505b6040517fdf2d9b4200000000000000000000000000000000000000000000000000000000815260040160405180910390fd5b919050565b6000808273ffffffffffffffffffffffffffffffffffffffff163b119050919050565b60008373ffffffffffffffffffffffffffffffffffffffff1663150b7a02611abf61123d565b8786866040518563ffffffff1660e01b8152600401611ae19493929190612885565b602060405180830381600087803b158015611afb57600080fd5b505af1925050508015611b2c57506040513d601f19601f82011682018060405250810190611b2991906125aa565b60015b611ba6573d8060008114611b5c576040519150601f19603f3d011682016040523d82523d6000602084013e611b61565b606091505b50600081511415611b9e576040517fd1a57ed600000000000000000000000000000000000000000000000000000000815260040160405180910390fd5b805181602001fd5b63150b7a0260e01b7bffffffffffffffffffffffffffffffffffffffffffffffffffffffff1916817bffffffffffffffffffffffffffffffffffffffffffffffffffffffff191614915050949350505050565b60606000821415611c41576040518060400160405280600181526020017f30000000000000000000000000000000000000000000000000000000000000008152509050611da1565b600082905060005b60008214611c73578080611c5c90612c5c565b915050600a82611c6c9190612ade565b9150611c49565b60008167ffffffffffffffff811115611cb5577f4e487b7100000000000000000000000000000000000000000000000000000000600052604160045260246000fd5b6040519080825280601f01601f191660200182016040528015611ce75781602001600182028036833780820191505090505b5090505b60008514611d9a57600182611d009190612b0f565b9150600a85611d0f9190612ca5565b6030611d1b9190612a88565b60f81b818381518110611d57577f4e487b7100000000000000000000000000000000000000000000000000000000600052603260045260246000fd5b60200101907effffffffffffffffffffffffffffffffffffffffffffffffffffffffffffff1916908160001a905350600a85611d939190612ade565b9450611ceb565b8093505050505b919050565b611db38383836001611dc4565b505050565b50505050565b50505050565b600080549050600073ffffffffffffffffffffffffffffffffffffffff168573ffffffffffffffffffffffffffffffffffffffff161415611e31576040517f2e07630000000000000000000000000000000000000000000000000000000000815260040160405180910390fd5b6000841415611e6c576040517fb562e8dd00000000000000000000000000000000000000000000000000000000815260040160405180910390fd5b611e796000868387611db8565b83600560008773ffffffffffffffffffffffffffffffffffffffff1673ffffffffffffffffffffffffffffffffffffffff16815260200190815260200160002060000160008282829054906101000a900467ffffffffffffffff160192506101000a81548167ffffffffffffffff021916908367ffffffffffffffff16021790555083600560008773ffffffffffffffffffffffffffffffffffffffff1673ffffffffffffffffffffffffffffffffffffffff16815260200190815260200160002060000160088282829054906101000a900467ffffffffffffffff160192506101000a81548167ffffffffffffffff021916908367ffffffffffffffff160217905550846004600083815260200190815260200160002060000160006101000a81548173ffffffffffffffffffffffffffffffffffffffff021916908373ffffffffffffffffffffffffffffffffffffffff160217905550426004600083815260200190815260200160002060000160146101000a81548167ffffffffffffffff021916908367ffffffffffffffff16021790555060008190506000858201905083801561204357506120428773ffffffffffffffffffffffffffffffffffffffff16611a76565b5b15612109575b818773ffffffffffffffffffffffffffffffffffffffff16600073ffffffffffffffffffffffffffffffffffffffff167fddf252ad1be2c89b69c2b068fc378daa952ba7f163c4a11628f55a4df523b3ef60405160405180910390a46120b86000888480600101955088611a99565b6120ee576040517fd1a57ed600000000000000000000000000000000000000000000000000000000815260040160405180910390fd5b8082141561204957826000541461210457600080fd5b612175565b5b818060010192508773ffffffffffffffffffffffffffffffffffffffff16600073ffffffffffffffffffffffffffffffffffffffff167fddf252ad1be2c89b69c2b068fc378daa952ba7f163c4a11628f55a4df523b3ef60405160405180910390a48082141561210a575b81600081905550505061218b6000868387611dbe565b5050505050565b82805461219e90612bf9565b90600052602060002090601f0160209004810192826121c05760008555612207565b82601f106121d957805160ff1916838001178555612207565b82800160010185558215612207579182015b828111156122065782518255916020019190600101906121eb565b5b509050612214919061225b565b5090565b6040518060600160405280600073ffffffffffffffffffffffffffffffffffffffff168152602001600067ffffffffffffffff1681526020016000151581525090565b5b8082111561227457600081600090555060010161225c565b5090565b600061228b612286846129ce565b6129a9565b9050828152602081018484840111156122a357600080fd5b6122ae848285612bb7565b509392505050565b60006122c96122c4846129ff565b6129a9565b9050828152602081018484840111156122e157600080fd5b6122ec848285612bb7565b509392505050565b60008135905061230381612e96565b92915050565b60008135905061231881612ead565b92915050565b60008135905061232d81612ec4565b92915050565b60008151905061234281612ec4565b92915050565b600082601f83011261235957600080fd5b8135612369848260208601612278565b91505092915050565b600082601f83011261238357600080fd5b81356123938482602086016122b6565b91505092915050565b6000813590506123ab81612edb565b92915050565b6000602082840312156123c357600080fd5b60006123d1848285016122f4565b91505092915050565b600080604083850312156123ed57600080fd5b60006123fb858286016122f4565b925050602061240c858286016122f4565b9150509250929050565b60008060006060848603121561242b57600080fd5b6000612439868287016122f4565b935050602061244a868287016122f4565b925050604061245b8682870161239c565b9150509250925092565b6000806000806080858703121561247b57600080fd5b6000612489878288016122f4565b945050602061249a878288016122f4565b93505060406124ab8782880161239c565b925050606085013567ffffffffffffffff8111156124c857600080fd5b6124d487828801612348565b91505092959194509250565b600080604083850312156124f357600080fd5b6000612501858286016122f4565b925050602061251285828601612309565b9150509250929050565b6000806040838503121561252f57600080fd5b600061253d858286016122f4565b925050602061254e8582860161239c565b9150509250929050565b60006020828403121561256a57600080fd5b600061257884828501612309565b91505092915050565b60006020828403121561259357600080fd5b60006125a18482850161231e565b91505092915050565b6000602082840312156125bc57600080fd5b60006125ca84828501612333565b91505092915050565b6000602082840312156125e557600080fd5b600082013567ffffffffffffffff8111156125ff57600080fd5b61260b84828501612372565b91505092915050565b60006020828403121561262657600080fd5b60006126348482850161239c565b91505092915050565b61264681612b43565b82525050565b61265581612b55565b82525050565b600061266682612a45565b6126708185612a5b565b9350612680818560208601612bc6565b61268981612d92565b840191505092915050565b600061269f82612a50565b6126a98185612a6c565b93506126b9818560208601612bc6565b6126c281612d92565b840191505092915050565b60006126d882612a50565b6126e28185612a7d565b93506126f2818560208601612bc6565b80840191505092915050565b6000815461270b81612bf9565b6127158186612a7d565b94506001821660008114612730576001811461274157612774565b60ff19831686528186019350612774565b61274a85612a30565b60005b8381101561276c5781548189015260018201915060208101905061274d565b838801955050505b50505092915050565b600061278a601683612a6c565b915061279582612da3565b602082019050919050565b60006127ad601783612a6c565b91506127b882612dcc565b602082019050919050565b60006127d0601883612a6c565b91506127db82612df5565b602082019050919050565b60006127f3602983612a6c565b91506127fe82612e1e565b604082019050919050565b6000612816600583612a7d565b915061282182612e6d565b600582019050919050565b61283581612bad565b82525050565b600061284782856126fe565b915061285382846126cd565b915061285e82612809565b91508190509392505050565b600060208201905061287f600083018461263d565b92915050565b600060808201905061289a600083018761263d565b6128a7602083018661263d565b6128b4604083018561282c565b81810360608301526128c6818461265b565b905095945050505050565b60006020820190506128e6600083018461264c565b92915050565b600060208201905081810360008301526129068184612694565b905092915050565b600060208201905081810360008301526129278161277d565b9050919050565b60006020820190508181036000830152612947816127a0565b9050919050565b60006020820190508181036000830152612967816127c3565b9050919050565b60006020820190508181036000830152612987816127e6565b9050919050565b60006020820190506129a3600083018461282c565b92915050565b60006129b36129c4565b90506129bf8282612c2b565b919050565b6000604051905090565b600067ffffffffffffffff8211156129e9576129e8612d63565b5b6129f282612d92565b9050602081019050919050565b600067ffffffffffffffff821115612a1a57612a19612d63565b5b612a2382612d92565b9050602081019050919050565b60008190508160005260206000209050919050565b600081519050919050565b600081519050919050565b600082825260208201905092915050565b600082825260208201905092915050565b600081905092915050565b6000612a9382612bad565b9150612a9e83612bad565b9250827fffffffffffffffffffffffffffffffffffffffffffffffffffffffffffffffff03821115612ad357612ad2612cd6565b5b828201905092915050565b6000612ae982612bad565b9150612af483612bad565b925082612b0457612b03612d05565b5b828204905092915050565b6000612b1a82612bad565b9150612b2583612bad565b925082821015612b3857612b37612cd6565b5b828203905092915050565b6000612b4e82612b8d565b9050919050565b60008115159050919050565b60007fffffffff0000000000000000000000000000000000000000000000000000000082169050919050565b600073ffffffffffffffffffffffffffffffffffffffff82169050919050565b6000819050919050565b82818337600083830152505050565b60005b83811015612be4578082015181840152602081019050612bc9565b83811115612bf3576000848401525b50505050565b60006002820490506001821680612c1157607f821691505b60208210811415612c2557612c24612d34565b5b50919050565b612c3482612d92565b810181811067ffffffffffffffff82111715612c5357612c52612d63565b5b80604052505050565b6000612c6782612bad565b91507fffffffffffffffffffffffffffffffffffffffffffffffffffffffffffffffff821415612c9a57612c99612cd6565b5b600182019050919050565b6000612cb082612bad565b9150612cbb83612bad565b925082612ccb57612cca612d05565b5b828206905092915050565b7f4e487b7100000000000000000000000000000000000000000000000000000000600052601160045260246000fd5b7f4e487b7100000000000000000000000000000000000000000000000000000000600052601260045260246000fd5b7f4e487b7100000000000000000000000000000000000000000000000000000000600052602260045260246000fd5b7f4e487b7100000000000000000000000000000000000000000000000000000000600052604160045260246000fd5b6000601f19601f8301169050919050565b7f4e6f206d6f726520737570706c7920746f206d696e7400000000000000000000600082015250565b7f4d696e74207072696365206d7573742062652070616964000000000000000000600082015250565b7f4d696e7420686173206e6f742073746172746564207965740000000000000000600082015250565b7f4f776e61626c653a2063616c6c6572206973206e6f742074686520636f6e747260008201527f616374206f776e65720000000000000000000000000000000000000000000000602082015250565b7f2e6a736f6e000000000000000000000000000000000000000000000000000000600082015250565b612e9f81612b43565b8114612eaa57600080fd5b50565b612eb681612b55565b8114612ec157600080fd5b50565b612ecd81612b61565b8114612ed857600080fd5b50565b612ee481612bad565b8114612eef57600080fd5b5056fea2646970667358221220b55574272e640e65505a04b8ed413489749eb4c4881c0a6f6af01b419b6e6ac464736f6c6343000804003368747470733a2f2f6561737465722e696e667572612d697066732e696f2f697066732f516d4e5531654c797446514c7031514c345753645239774e486d43466a463152646d6b73765878364533543653322f",
  "linkReferences": {},
  "deployedLinkReferences": {}
}