{
  "_format": "hh-sol-artifact-1",
  "contractName": "NFT",
  "sourceName": "contracts/NFT.sol",
  "abi": [
    {
      "inputs": [],
      "stateMutability": "nonpayable",
      "type": "constructor"
    },
    {
      "inputs": [],
      "name": "ApprovalCallerNotOwnerNorApproved",
      "type": "error"
    },
    {
      "inputs": [],
      "name": "ApprovalQueryForNonexistentToken",
      "type": "error"
    },
    {
      "inputs": [],
      "name": "ApprovalToCurrentOwner",
      "type": "error"
    },
    {
      "inputs": [],
      "name": "ApproveToCaller",
      "type": "error"
    },
    {
      "inputs": [],
      "name": "BalanceQueryForZeroAddress",
      "type": "error"
    },
    {
      "inputs": [
        {
          "internalType": "string",
          "name": "error",
          "type": "string"
        }
      ],
      "name": "MintFinished",
      "type": "error"
    },
    {
      "inputs": [
        {
          "internalType": "bool",
          "name": "mintable",
          "type": "bool"
        },
        {
          "internalType": "string",
          "name": "error",
          "type": "string"
        }
      ],
      "name": "MintNotStarted",
      "type": "error"
    },
    {
      "inputs": [],
      "name": "MintToZeroAddress",
      "type": "error"
    },
    {
      "inputs": [],
      "name": "MintZeroQuantity",
      "type": "error"
    },
    {
      "inputs": [],
      "name": "OwnerQueryForNonexistentToken",
      "type": "error"
    },
    {
      "inputs": [],
      "name": "TransferCallerNotOwnerNorApproved",
      "type": "error"
    },
    {
      "inputs": [],
      "name": "TransferFromIncorrectOwner",
      "type": "error"
    },
    {
      "inputs": [],
      "name": "TransferToNonERC721ReceiverImplementer",
      "type": "error"
    },
    {
      "inputs": [],
      "name": "TransferToZeroAddress",
      "type": "error"
    },
    {
      "inputs": [],
      "name": "URIQueryForNonexistentToken",
      "type": "error"
    },
    {
      "anonymous": false,
      "inputs": [
        {
          "indexed": true,
          "internalType": "address",
          "name": "owner",
          "type": "address"
        },
        {
          "indexed": true,
          "internalType": "address",
          "name": "approved",
          "type": "address"
        },
        {
          "indexed": true,
          "internalType": "uint256",
          "name": "tokenId",
          "type": "uint256"
        }
      ],
      "name": "Approval",
      "type": "event"
    },
    {
      "anonymous": false,
      "inputs": [
        {
          "indexed": true,
          "internalType": "address",
          "name": "owner",
          "type": "address"
        },
        {
          "indexed": true,
          "internalType": "address",
          "name": "operator",
          "type": "address"
        },
        {
          "indexed": false,
          "internalType": "bool",
          "name": "approved",
          "type": "bool"
        }
      ],
      "name": "ApprovalForAll",
      "type": "event"
    },
    {
      "anonymous": false,
      "inputs": [
        {
          "indexed": true,
          "internalType": "address",
          "name": "from",
          "type": "address"
        },
        {
          "indexed": true,
          "internalType": "address",
          "name": "to",
          "type": "address"
        },
        {
          "indexed": true,
          "internalType": "uint256",
          "name": "tokenId",
          "type": "uint256"
        }
      ],
      "name": "Transfer",
      "type": "event"
    },
    {
      "inputs": [
        {
          "internalType": "address",
          "name": "to",
          "type": "address"
        },
        {
          "internalType": "uint256",
          "name": "tokenId",
          "type": "uint256"
        }
      ],
      "name": "approve",
      "outputs": [],
      "stateMutability": "nonpayable",
      "type": "function"
    },
    {
      "inputs": [
        {
          "internalType": "address",
          "name": "owner",
          "type": "address"
        }
      ],
      "name": "balanceOf",
      "outputs": [
        {
          "internalType": "uint256",
          "name": "",
          "type": "uint256"
        }
      ],
      "stateMutability": "view",
      "type": "function"
    },
    {
      "inputs": [
        {
          "internalType": "uint256",
          "name": "tokenId",
          "type": "uint256"
        }
      ],
      "name": "getApproved",
      "outputs": [
        {
          "internalType": "address",
          "name": "",
          "type": "address"
        }
      ],
      "stateMutability": "view",
      "type": "function"
    },
    {
      "inputs": [
        {
          "internalType": "address",
          "name": "owner",
          "type": "address"
        },
        {
          "internalType": "address",
          "name": "operator",
          "type": "address"
        }
      ],
      "name": "isApprovedForAll",
      "outputs": [
        {
          "internalType": "bool",
          "name": "",
          "type": "bool"
        }
      ],
      "stateMutability": "view",
      "type": "function"
    },
    {
      "inputs": [],
      "name": "isMintable",
      "outputs": [
        {
          "internalType": "bool",
          "name": "",
          "type": "bool"
        }
      ],
      "stateMutability": "view",
      "type": "function"
    },
    {
      "inputs": [
        {
          "internalType": "address",
          "name": "_address",
          "type": "address"
        }
      ],
      "name": "isOwner",
      "outputs": [
        {
          "internalType": "bool",
          "name": "",
          "type": "bool"
        }
      ],
      "stateMutability": "view",
      "type": "function"
    },
    {
      "inputs": [],
      "name": "maxSupply",
      "outputs": [
        {
          "internalType": "uint256",
          "name": "",
          "type": "uint256"
        }
      ],
      "stateMutability": "view",
      "type": "function"
    },
    {
      "inputs": [],
      "name": "mint",
      "outputs": [],
      "stateMutability": "payable",
      "type": "function"
    },
    {
      "inputs": [],
      "name": "name",
      "outputs": [
        {
          "internalType": "string",
          "name": "",
          "type": "string"
        }
      ],
      "stateMutability": "view",
      "type": "function"
    },
    {
      "inputs": [
        {
          "internalType": "uint256",
          "name": "tokenId",
          "type": "uint256"
        }
      ],
      "name": "ownerOf",
      "outputs": [
        {
          "internalType": "address",
          "name": "",
          "type": "address"
        }
      ],
      "stateMutability": "view",
      "type": "function"
    },
    {
      "inputs": [
        {
          "internalType": "address",
          "name": "from",
          "type": "address"
        },
        {
          "internalType": "address",
          "name": "to",
          "type": "address"
        },
        {
          "internalType": "uint256",
          "name": "tokenId",
          "type": "uint256"
        }
      ],
      "name": "safeTransferFrom",
      "outputs": [],
      "stateMutability": "nonpayable",
      "type": "function"
    },
    {
      "inputs": [
        {
          "internalType": "address",
          "name": "from",
          "type": "address"
        },
        {
          "internalType": "address",
          "name": "to",
          "type": "address"
        },
        {
          "internalType": "uint256",
          "name": "tokenId",
          "type": "uint256"
        },
        {
          "internalType": "bytes",
          "name": "_data",
          "type": "bytes"
        }
      ],
      "name": "safeTransferFrom",
      "outputs": [],
      "stateMutability": "nonpayable",
      "type": "function"
    },
    {
      "inputs": [
        {
          "internalType": "address",
          "name": "operator",
          "type": "address"
        },
        {
          "internalType": "bool",
          "name": "approved",
          "type": "bool"
        }
      ],
      "name": "setApprovalForAll",
      "outputs": [],
      "stateMutability": "nonpayable",
      "type": "function"
    },
    {
      "inputs": [
        {
          "internalType": "string",
          "name": "baseURI",
          "type": "string"
        }
      ],
      "name": "setBaseURI",
      "outputs": [],
      "stateMutability": "nonpayable",
      "type": "function"
    },
    {
      "inputs": [
        {
          "internalType": "string",
          "name": "nonRevealedTokenURI",
          "type": "string"
        }
      ],
      "name": "setNonRevealedTokenURI",
      "outputs": [],
      "stateMutability": "nonpayable",
      "type": "function"
    },
    {
      "inputs": [
        {
          "internalType": "bytes4",
          "name": "interfaceId",
          "type": "bytes4"
        }
      ],
      "name": "supportsInterface",
      "outputs": [
        {
          "internalType": "bool",
          "name": "",
          "type": "bool"
        }
      ],
      "stateMutability": "view",
      "type": "function"
    },
    {
      "inputs": [],
      "name": "symbol",
      "outputs": [
        {
          "internalType": "string",
          "name": "",
          "type": "string"
        }
      ],
      "stateMutability": "view",
      "type": "function"
    },
    {
      "inputs": [
        {
          "internalType": "bool",
          "name": "mintable",
          "type": "bool"
        }
      ],
      "name": "toggleMintable",
      "outputs": [],
      "stateMutability": "nonpayable",
      "type": "function"
    },
    {
      "inputs": [
        {
          "internalType": "uint256",
          "name": "tokenId",
          "type": "uint256"
        }
      ],
      "name": "tokenURI",
      "outputs": [
        {
          "internalType": "string",
          "name": "",
          "type": "string"
        }
      ],
      "stateMutability": "view",
      "type": "function"
    },
    {
      "inputs": [],
      "name": "totalSupply",
      "outputs": [
        {
          "internalType": "uint256",
          "name": "",
          "type": "uint256"
        }
      ],
      "stateMutability": "view",
      "type": "function"
    },
    {
      "inputs": [
        {
          "internalType": "address",
          "name": "from",
          "type": "address"
        },
        {
          "internalType": "address",
          "name": "to",
          "type": "address"
        },
        {
          "internalType": "uint256",
          "name": "tokenId",
          "type": "uint256"
        }
      ],
      "name": "transferFrom",
      "outputs": [],
      "stateMutability": "nonpayable",
      "type": "function"
    }
  ],
  "bytecode": "0x60806040523480156200001157600080fd5b506040518060400160405280600981526020017f4561737465724e465400000000000000000000000000000000000000000000008152506040518060400160405280600981526020017f4541535445524e465400000000000000000000000000000000000000000000008152508160029080519060200190620000969291906200022d565b508060039080519060200190620000af9291906200022d565b50620000c06200022460201b60201c565b600081905550505060016008600073993c95a0447c7f700ff807995d52ef7579ec155c73ffffffffffffffffffffffffffffffffffffffff1673ffffffffffffffffffffffffffffffffffffffff16815260200190815260200160002060006101000a81548160ff02191690831515021790555060016008600073d36ebd3cf04fd1b022ec71f6d6eb8e1d494fb28873ffffffffffffffffffffffffffffffffffffffff1673ffffffffffffffffffffffffffffffffffffffff16815260200190815260200160002060006101000a81548160ff021916908315150217905550604051806080016040528060588152602001620030ef6058913960099080519060200190620001d19291906200022d565b5060405180602001604052806000815250600a9080519060200190620001f99291906200022d565b506000600b60006101000a81548160ff021916908315150217905550610190600c8190555062000342565b60006001905090565b8280546200023b90620002dd565b90600052602060002090601f0160209004810192826200025f5760008555620002ab565b82601f106200027a57805160ff1916838001178555620002ab565b82800160010185558215620002ab579182015b82811115620002aa5782518255916020019190600101906200028d565b5b509050620002ba9190620002be565b5090565b5b80821115620002d9576000816000905550600101620002bf565b5090565b60006002820490506001821680620002f657607f821691505b602082108114156200030d576200030c62000313565b5b50919050565b7f4e487b7100000000000000000000000000000000000000000000000000000000600052602260045260246000fd5b612d9d80620003526000396000f3fe60806040526004361061012a5760003560e01c806346b45af7116100ab578063a22cb4651161006f578063a22cb465146103e3578063b88d4fde1461040c578063c87b56dd14610435578063d5abeb0114610472578063e985e9c51461049d578063eccfa9fb146104da5761012a565b806346b45af7146102ea57806355f804b3146103155780636352211e1461033e57806370a082311461037b57806395d89b41146103b85761012a565b80631249c58b116100f25780631249c58b1461022657806318160ddd1461023057806323b872dd1461025b5780632f54bf6e1461028457806342842e0e146102c15761012a565b806301ffc9a71461012f57806305c94d9d1461016c57806306fdde0314610195578063081812fc146101c0578063095ea7b3146101fd575b600080fd5b34801561013b57600080fd5b506101566004803603810190610151919061247a565b610503565b60405161016391906127a7565b60405180910390f35b34801561017857600080fd5b50610193600480360381019061018e91906124cc565b6105e5565b005b3480156101a157600080fd5b506101aa610692565b6040516101b791906127f0565b60405180910390f35b3480156101cc57600080fd5b506101e760048036038101906101e2919061250d565b610724565b6040516101f49190612740565b60405180910390f35b34801561020957600080fd5b50610224600480360381019061021f9190612415565b6107a0565b005b61022e6108ab565b005b34801561023c57600080fd5b50610245610963565b6040516102529190612852565b60405180910390f35b34801561026757600080fd5b50610282600480360381019061027d919061230f565b61097a565b005b34801561029057600080fd5b506102ab60048036038101906102a691906122aa565b61098a565b6040516102b891906127a7565b60405180910390f35b3480156102cd57600080fd5b506102e860048036038101906102e3919061230f565b6109e0565b005b3480156102f657600080fd5b506102ff610a00565b60405161030c91906127a7565b60405180910390f35b34801561032157600080fd5b5061033c600480360381019061033791906124cc565b610a13565b005b34801561034a57600080fd5b506103656004803603810190610360919061250d565b610ac0565b6040516103729190612740565b60405180910390f35b34801561038757600080fd5b506103a2600480360381019061039d91906122aa565b610ad6565b6040516103af9190612852565b60405180910390f35b3480156103c457600080fd5b506103cd610ba6565b6040516103da91906127f0565b60405180910390f35b3480156103ef57600080fd5b5061040a600480360381019061040591906123d9565b610c38565b005b34801561041857600080fd5b50610433600480360381019061042e919061235e565b610db0565b005b34801561044157600080fd5b5061045c6004803603810190610457919061250d565b610e2c565b60405161046991906127f0565b60405180910390f35b34801561047e57600080fd5b50610487610f47565b6040516104949190612852565b60405180910390f35b3480156104a957600080fd5b506104c460048036038101906104bf91906122d3565b610f4d565b6040516104d191906127a7565b60405180910390f35b3480156104e657600080fd5b5061050160048036038101906104fc9190612451565b610fe1565b005b60007f80ac58cd000000000000000000000000000000000000000000000000000000007bffffffffffffffffffffffffffffffffffffffffffffffffffffffff1916827bffffffffffffffffffffffffffffffffffffffffffffffffffffffff191614806105ce57507f5b5e139f000000000000000000000000000000000000000000000000000000007bffffffffffffffffffffffffffffffffffffffffffffffffffffffff1916827bffffffffffffffffffffffffffffffffffffffffffffffffffffffff1916145b806105de57506105dd82611091565b5b9050919050565b600860006105f16110fb565b73ffffffffffffffffffffffffffffffffffffffff1673ffffffffffffffffffffffffffffffffffffffff16815260200190815260200160002060009054906101000a900460ff16610678576040517f08c379a000000000000000000000000000000000000000000000000000000000815260040161066f90612832565b60405180910390fd5b80600a908051906020019061068e92919061208b565b5050565b6060600280546106a190612abd565b80601f01602080910402602001604051908101604052809291908181526020018280546106cd90612abd565b801561071a5780601f106106ef5761010080835404028352916020019161071a565b820191906000526020600020905b8154815290600101906020018083116106fd57829003601f168201915b5050505050905090565b600061072f82611103565b610765576040517fcf4700e400000000000000000000000000000000000000000000000000000000815260040160405180910390fd5b6006600083815260200190815260200160002060009054906101000a900473ffffffffffffffffffffffffffffffffffffffff169050919050565b60006107ab82610ac0565b90508073ffffffffffffffffffffffffffffffffffffffff168373ffffffffffffffffffffffffffffffffffffffff161415610813576040517f943f7b8c00000000000000000000000000000000000000000000000000000000815260040160405180910390fd5b8073ffffffffffffffffffffffffffffffffffffffff166108326110fb565b73ffffffffffffffffffffffffffffffffffffffff161415801561086457506108628161085d6110fb565b610f4d565b155b1561089b576040517fcfb3b94200000000000000000000000000000000000000000000000000000000815260040160405180910390fd5b6108a6838383611151565b505050565b600b60009054906101000a900460ff1661090b57600b60009054906101000a900460ff166040517f71dcd37500000000000000000000000000000000000000000000000000000000815260040161090291906127c2565b60405180910390fd5b600c54610916610963565b10610956576040517ffcccdb6300000000000000000000000000000000000000000000000000000000815260040161094d90612812565b60405180910390fd5b610961336001611203565b565b600061096d611221565b6001546000540303905090565b61098583838361122a565b505050565b6000600860008373ffffffffffffffffffffffffffffffffffffffff1673ffffffffffffffffffffffffffffffffffffffff16815260200190815260200160002060009054906101000a900460ff169050919050565b6109fb83838360405180602001604052806000815250610db0565b505050565b600b60009054906101000a900460ff1681565b60086000610a1f6110fb565b73ffffffffffffffffffffffffffffffffffffffff1673ffffffffffffffffffffffffffffffffffffffff16815260200190815260200160002060009054906101000a900460ff16610aa6576040517f08c379a0000000000000000000000000000000000000000000000000000000008152600401610a9d90612832565b60405180910390fd5b8060099080519060200190610abc92919061208b565b5050565b6000610acb826116e0565b600001519050919050565b60008073ffffffffffffffffffffffffffffffffffffffff168273ffffffffffffffffffffffffffffffffffffffff161415610b3e576040517f8f4eb60400000000000000000000000000000000000000000000000000000000815260040160405180910390fd5b600560008373ffffffffffffffffffffffffffffffffffffffff1673ffffffffffffffffffffffffffffffffffffffff16815260200190815260200160002060000160009054906101000a900467ffffffffffffffff1667ffffffffffffffff169050919050565b606060038054610bb590612abd565b80601f0160208091040260200160405190810160405280929190818152602001828054610be190612abd565b8015610c2e5780601f10610c0357610100808354040283529160200191610c2e565b820191906000526020600020905b815481529060010190602001808311610c1157829003601f168201915b5050505050905090565b610c406110fb565b73ffffffffffffffffffffffffffffffffffffffff168273ffffffffffffffffffffffffffffffffffffffff161415610ca5576040517fb06307db00000000000000000000000000000000000000000000000000000000815260040160405180910390fd5b8060076000610cb26110fb565b73ffffffffffffffffffffffffffffffffffffffff1673ffffffffffffffffffffffffffffffffffffffff16815260200190815260200160002060008473ffffffffffffffffffffffffffffffffffffffff1673ffffffffffffffffffffffffffffffffffffffff16815260200190815260200160002060006101000a81548160ff0219169083151502179055508173ffffffffffffffffffffffffffffffffffffffff16610d5f6110fb565b73ffffffffffffffffffffffffffffffffffffffff167f17307eab39ab6107e8899845ad3d59bd9653f200f220920489ca2b5937696c3183604051610da491906127a7565b60405180910390a35050565b610dbb84848461122a565b610dda8373ffffffffffffffffffffffffffffffffffffffff1661196f565b8015610def5750610ded84848484611992565b155b15610e26576040517fd1a57ed600000000000000000000000000000000000000000000000000000000815260040160405180910390fd5b50505050565b6060610e3782611103565b610e6d576040517fa14c4b5000000000000000000000000000000000000000000000000000000000815260040160405180910390fd5b600060098054610e7c90612abd565b90501415610f1457600a8054610e9190612abd565b80601f0160208091040260200160405190810160405280929190818152602001828054610ebd90612abd565b8015610f0a5780601f10610edf57610100808354040283529160200191610f0a565b820191906000526020600020905b815481529060010190602001808311610eed57829003601f168201915b5050505050610f40565b6009610f1f83611af2565b604051602001610f30929190612711565b6040516020818303038152906040525b9050919050565b600c5481565b6000600760008473ffffffffffffffffffffffffffffffffffffffff1673ffffffffffffffffffffffffffffffffffffffff16815260200190815260200160002060008373ffffffffffffffffffffffffffffffffffffffff1673ffffffffffffffffffffffffffffffffffffffff16815260200190815260200160002060009054906101000a900460ff16905092915050565b60086000610fed6110fb565b73ffffffffffffffffffffffffffffffffffffffff1673ffffffffffffffffffffffffffffffffffffffff16815260200190815260200160002060009054906101000a900460ff16611074576040517f08c379a000000000000000000000000000000000000000000000000000000000815260040161106b90612832565b60405180910390fd5b80600b60006101000a81548160ff02191690831515021790555050565b60007f01ffc9a7000000000000000000000000000000000000000000000000000000007bffffffffffffffffffffffffffffffffffffffffffffffffffffffff1916827bffffffffffffffffffffffffffffffffffffffffffffffffffffffff1916149050919050565b600033905090565b60008161110e611221565b1115801561111d575060005482105b801561114a575060046000838152602001908152602001600020600001601c9054906101000a900460ff16155b9050919050565b826006600084815260200190815260200160002060006101000a81548173ffffffffffffffffffffffffffffffffffffffff021916908373ffffffffffffffffffffffffffffffffffffffff160217905550818373ffffffffffffffffffffffffffffffffffffffff168273ffffffffffffffffffffffffffffffffffffffff167f8c5be1e5ebec7d5bd14f71427d1e84f3dd0314c0f7b2291e5b200ac8c7c3b92560405160405180910390a4505050565b61121d828260405180602001604052806000815250611c9f565b5050565b60006001905090565b6000611235826116e0565b90508373ffffffffffffffffffffffffffffffffffffffff16816000015173ffffffffffffffffffffffffffffffffffffffff16146112a0576040517fa114810000000000000000000000000000000000000000000000000000000000815260040160405180910390fd5b60008473ffffffffffffffffffffffffffffffffffffffff166112c16110fb565b73ffffffffffffffffffffffffffffffffffffffff1614806112f057506112ef856112ea6110fb565b610f4d565b5b8061133557506112fe6110fb565b73ffffffffffffffffffffffffffffffffffffffff1661131d84610724565b73ffffffffffffffffffffffffffffffffffffffff16145b90508061136e576040517f59c896be00000000000000000000000000000000000000000000000000000000815260040160405180910390fd5b600073ffffffffffffffffffffffffffffffffffffffff168473ffffffffffffffffffffffffffffffffffffffff1614156113d5576040517fea553b3400000000000000000000000000000000000000000000000000000000815260040160405180910390fd5b6113e28585856001611cb1565b6113ee60008487611151565b6001600560008773ffffffffffffffffffffffffffffffffffffffff1673ffffffffffffffffffffffffffffffffffffffff16815260200190815260200160002060000160008282829054906101000a900467ffffffffffffffff160392506101000a81548167ffffffffffffffff021916908367ffffffffffffffff1602179055506001600560008673ffffffffffffffffffffffffffffffffffffffff1673ffffffffffffffffffffffffffffffffffffffff16815260200190815260200160002060000160008282829054906101000a900467ffffffffffffffff160192506101000a81548167ffffffffffffffff021916908367ffffffffffffffff1602179055506000600460008581526020019081526020016000209050848160000160006101000a81548173ffffffffffffffffffffffffffffffffffffffff021916908373ffffffffffffffffffffffffffffffffffffffff160217905550428160000160146101000a81548167ffffffffffffffff021916908367ffffffffffffffff16021790555060006001850190506000600460008381526020019081526020016000209050600073ffffffffffffffffffffffffffffffffffffffff168160000160009054906101000a900473ffffffffffffffffffffffffffffffffffffffff1673ffffffffffffffffffffffffffffffffffffffff16141561166e57600054821461166d57878160000160006101000a81548173ffffffffffffffffffffffffffffffffffffffff021916908373ffffffffffffffffffffffffffffffffffffffff16021790555084602001518160000160146101000a81548167ffffffffffffffff021916908367ffffffffffffffff1602179055505b5b505050828473ffffffffffffffffffffffffffffffffffffffff168673ffffffffffffffffffffffffffffffffffffffff167fddf252ad1be2c89b69c2b068fc378daa952ba7f163c4a11628f55a4df523b3ef60405160405180910390a46116d98585856001611cb7565b5050505050565b6116e8612111565b6000829050806116f6611221565b11158015611705575060005481105b15611938576000600460008381526020019081526020016000206040518060600160405290816000820160009054906101000a900473ffffffffffffffffffffffffffffffffffffffff1673ffffffffffffffffffffffffffffffffffffffff1673ffffffffffffffffffffffffffffffffffffffff1681526020016000820160149054906101000a900467ffffffffffffffff1667ffffffffffffffff1667ffffffffffffffff16815260200160008201601c9054906101000a900460ff1615151515815250509050806040015161193657600073ffffffffffffffffffffffffffffffffffffffff16816000015173ffffffffffffffffffffffffffffffffffffffff161461181a57809250505061196a565b5b60011561193557818060019003925050600460008381526020019081526020016000206040518060600160405290816000820160009054906101000a900473ffffffffffffffffffffffffffffffffffffffff1673ffffffffffffffffffffffffffffffffffffffff1673ffffffffffffffffffffffffffffffffffffffff1681526020016000820160149054906101000a900467ffffffffffffffff1667ffffffffffffffff1667ffffffffffffffff16815260200160008201601c9054906101000a900460ff1615151515815250509050600073ffffffffffffffffffffffffffffffffffffffff16816000015173ffffffffffffffffffffffffffffffffffffffff161461193057809250505061196a565b61181b565b5b505b6040517fdf2d9b4200000000000000000000000000000000000000000000000000000000815260040160405180910390fd5b919050565b6000808273ffffffffffffffffffffffffffffffffffffffff163b119050919050565b60008373ffffffffffffffffffffffffffffffffffffffff1663150b7a026119b86110fb565b8786866040518563ffffffff1660e01b81526004016119da949392919061275b565b602060405180830381600087803b1580156119f457600080fd5b505af1925050508015611a2557506040513d601f19601f82011682018060405250810190611a2291906124a3565b60015b611a9f573d8060008114611a55576040519150601f19603f3d011682016040523d82523d6000602084013e611a5a565b606091505b50600081511415611a97576040517fd1a57ed600000000000000000000000000000000000000000000000000000000815260040160405180910390fd5b805181602001fd5b63150b7a0260e01b7bffffffffffffffffffffffffffffffffffffffffffffffffffffffff1916817bffffffffffffffffffffffffffffffffffffffffffffffffffffffff191614915050949350505050565b60606000821415611b3a576040518060400160405280600181526020017f30000000000000000000000000000000000000000000000000000000000000008152509050611c9a565b600082905060005b60008214611b6c578080611b5590612b20565b915050600a82611b6591906129a2565b9150611b42565b60008167ffffffffffffffff811115611bae577f4e487b7100000000000000000000000000000000000000000000000000000000600052604160045260246000fd5b6040519080825280601f01601f191660200182016040528015611be05781602001600182028036833780820191505090505b5090505b60008514611c9357600182611bf991906129d3565b9150600a85611c089190612b69565b6030611c14919061294c565b60f81b818381518110611c50577f4e487b7100000000000000000000000000000000000000000000000000000000600052603260045260246000fd5b60200101907effffffffffffffffffffffffffffffffffffffffffffffffffffffffffffff1916908160001a905350600a85611c8c91906129a2565b9450611be4565b8093505050505b919050565b611cac8383836001611cbd565b505050565b50505050565b50505050565b600080549050600073ffffffffffffffffffffffffffffffffffffffff168573ffffffffffffffffffffffffffffffffffffffff161415611d2a576040517f2e07630000000000000000000000000000000000000000000000000000000000815260040160405180910390fd5b6000841415611d65576040517fb562e8dd00000000000000000000000000000000000000000000000000000000815260040160405180910390fd5b611d726000868387611cb1565b83600560008773ffffffffffffffffffffffffffffffffffffffff1673ffffffffffffffffffffffffffffffffffffffff16815260200190815260200160002060000160008282829054906101000a900467ffffffffffffffff160192506101000a81548167ffffffffffffffff021916908367ffffffffffffffff16021790555083600560008773ffffffffffffffffffffffffffffffffffffffff1673ffffffffffffffffffffffffffffffffffffffff16815260200190815260200160002060000160088282829054906101000a900467ffffffffffffffff160192506101000a81548167ffffffffffffffff021916908367ffffffffffffffff160217905550846004600083815260200190815260200160002060000160006101000a81548173ffffffffffffffffffffffffffffffffffffffff021916908373ffffffffffffffffffffffffffffffffffffffff160217905550426004600083815260200190815260200160002060000160146101000a81548167ffffffffffffffff021916908367ffffffffffffffff160217905550600081905060008582019050838015611f3c5750611f3b8773ffffffffffffffffffffffffffffffffffffffff1661196f565b5b15612002575b818773ffffffffffffffffffffffffffffffffffffffff16600073ffffffffffffffffffffffffffffffffffffffff167fddf252ad1be2c89b69c2b068fc378daa952ba7f163c4a11628f55a4df523b3ef60405160405180910390a4611fb16000888480600101955088611992565b611fe7576040517fd1a57ed600000000000000000000000000000000000000000000000000000000815260040160405180910390fd5b80821415611f42578260005414611ffd57600080fd5b61206e565b5b818060010192508773ffffffffffffffffffffffffffffffffffffffff16600073ffffffffffffffffffffffffffffffffffffffff167fddf252ad1be2c89b69c2b068fc378daa952ba7f163c4a11628f55a4df523b3ef60405160405180910390a480821415612003575b8160008190555050506120846000868387611cb7565b5050505050565b82805461209790612abd565b90600052602060002090601f0160209004810192826120b95760008555612100565b82601f106120d257805160ff1916838001178555612100565b82800160010185558215612100579182015b828111156120ff5782518255916020019190600101906120e4565b5b50905061210d9190612154565b5090565b6040518060600160405280600073ffffffffffffffffffffffffffffffffffffffff168152602001600067ffffffffffffffff1681526020016000151581525090565b5b8082111561216d576000816000905550600101612155565b5090565b600061218461217f84612892565b61286d565b90508281526020810184848401111561219c57600080fd5b6121a7848285612a7b565b509392505050565b60006121c26121bd846128c3565b61286d565b9050828152602081018484840111156121da57600080fd5b6121e5848285612a7b565b509392505050565b6000813590506121fc81612d0b565b92915050565b60008135905061221181612d22565b92915050565b60008135905061222681612d39565b92915050565b60008151905061223b81612d39565b92915050565b600082601f83011261225257600080fd5b8135612262848260208601612171565b91505092915050565b600082601f83011261227c57600080fd5b813561228c8482602086016121af565b91505092915050565b6000813590506122a481612d50565b92915050565b6000602082840312156122bc57600080fd5b60006122ca848285016121ed565b91505092915050565b600080604083850312156122e657600080fd5b60006122f4858286016121ed565b9250506020612305858286016121ed565b9150509250929050565b60008060006060848603121561232457600080fd5b6000612332868287016121ed565b9350506020612343868287016121ed565b925050604061235486828701612295565b9150509250925092565b6000806000806080858703121561237457600080fd5b6000612382878288016121ed565b9450506020612393878288016121ed565b93505060406123a487828801612295565b925050606085013567ffffffffffffffff8111156123c157600080fd5b6123cd87828801612241565b91505092959194509250565b600080604083850312156123ec57600080fd5b60006123fa858286016121ed565b925050602061240b85828601612202565b9150509250929050565b6000806040838503121561242857600080fd5b6000612436858286016121ed565b925050602061244785828601612295565b9150509250929050565b60006020828403121561246357600080fd5b600061247184828501612202565b91505092915050565b60006020828403121561248c57600080fd5b600061249a84828501612217565b91505092915050565b6000602082840312156124b557600080fd5b60006124c38482850161222c565b91505092915050565b6000602082840312156124de57600080fd5b600082013567ffffffffffffffff8111156124f857600080fd5b6125048482850161226b565b91505092915050565b60006020828403121561251f57600080fd5b600061252d84828501612295565b91505092915050565b61253f81612a07565b82525050565b61254e81612a19565b82525050565b600061255f82612909565b612569818561291f565b9350612579818560208601612a8a565b61258281612c56565b840191505092915050565b600061259882612914565b6125a28185612930565b93506125b2818560208601612a8a565b6125bb81612c56565b840191505092915050565b60006125d182612914565b6125db8185612941565b93506125eb818560208601612a8a565b80840191505092915050565b6000815461260481612abd565b61260e8186612941565b94506001821660008114612629576001811461263a5761266d565b60ff1983168652818601935061266d565b612643856128f4565b60005b8381101561266557815481890152600182019150602081019050612646565b838801955050505b50505092915050565b6000612683601783612930565b915061268e82612c67565b602082019050919050565b60006126a6600583612941565b91506126b182612c90565b600582019050919050565b60006126c9602083612930565b91506126d482612cb9565b602082019050919050565b60006126ec601483612930565b91506126f782612ce2565b602082019050919050565b61270b81612a71565b82525050565b600061271d82856125f7565b915061272982846125c6565b915061273482612699565b91508190509392505050565b60006020820190506127556000830184612536565b92915050565b60006080820190506127706000830187612536565b61277d6020830186612536565b61278a6040830185612702565b818103606083015261279c8184612554565b905095945050505050565b60006020820190506127bc6000830184612545565b92915050565b60006040820190506127d76000830184612545565b81810360208301526127e8816126df565b905092915050565b6000602082019050818103600083015261280a818461258d565b905092915050565b6000602082019050818103600083015261282b81612676565b9050919050565b6000602082019050818103600083015261284b816126bc565b9050919050565b60006020820190506128676000830184612702565b92915050565b6000612877612888565b90506128838282612aef565b919050565b6000604051905090565b600067ffffffffffffffff8211156128ad576128ac612c27565b5b6128b682612c56565b9050602081019050919050565b600067ffffffffffffffff8211156128de576128dd612c27565b5b6128e782612c56565b9050602081019050919050565b60008190508160005260206000209050919050565b600081519050919050565b600081519050919050565b600082825260208201905092915050565b600082825260208201905092915050565b600081905092915050565b600061295782612a71565b915061296283612a71565b9250827fffffffffffffffffffffffffffffffffffffffffffffffffffffffffffffffff0382111561299757612996612b9a565b5b828201905092915050565b60006129ad82612a71565b91506129b883612a71565b9250826129c8576129c7612bc9565b5b828204905092915050565b60006129de82612a71565b91506129e983612a71565b9250828210156129fc576129fb612b9a565b5b828203905092915050565b6000612a1282612a51565b9050919050565b60008115159050919050565b60007fffffffff0000000000000000000000000000000000000000000000000000000082169050919050565b600073ffffffffffffffffffffffffffffffffffffffff82169050919050565b6000819050919050565b82818337600083830152505050565b60005b83811015612aa8578082015181840152602081019050612a8d565b83811115612ab7576000848401525b50505050565b60006002820490506001821680612ad557607f821691505b60208210811415612ae957612ae8612bf8565b5b50919050565b612af882612c56565b810181811067ffffffffffffffff82111715612b1757612b16612c27565b5b80604052505050565b6000612b2b82612a71565b91507fffffffffffffffffffffffffffffffffffffffffffffffffffffffffffffffff821415612b5e57612b5d612b9a565b5b600182019050919050565b6000612b7482612a71565b9150612b7f83612a71565b925082612b8f57612b8e612bc9565b5b828206905092915050565b7f4e487b7100000000000000000000000000000000000000000000000000000000600052601160045260246000fd5b7f4e487b7100000000000000000000000000000000000000000000000000000000600052601260045260246000fd5b7f4e487b7100000000000000000000000000000000000000000000000000000000600052602260045260246000fd5b7f4e487b7100000000000000000000000000000000000000000000000000000000600052604160045260246000fd5b6000601f19601f8301169050919050565b7f4e6f206d6f726520737570706c7920746f206d696e742e000000000000000000600082015250565b7f2e6a736f6e000000000000000000000000000000000000000000000000000000600082015250565b7f4f776e61626c653a2063616c6c6572206973206e6f7420746865206f776e6572600082015250565b7f4d696e74206e6f74207374617274656420796574000000000000000000000000600082015250565b612d1481612a07565b8114612d1f57600080fd5b50565b612d2b81612a19565b8114612d3657600080fd5b50565b612d4281612a25565b8114612d4d57600080fd5b50565b612d5981612a71565b8114612d6457600080fd5b5056fea2646970667358221220785b9a492533f2791102603581a725e6bd04cb048a83ebdac33518586fbc510464736f6c6343000804003368747470733a2f2f626166796265696479356c7a793264657332733264656268766e687174747633763769356f776a6434766c6b6e61796c61793779346172357261692e697066732e696e667572612d697066732e696f2f",
  "linkReferences": {},
  "deployedLinkReferences": {}
}