{
  "_format": "hh-sol-artifact-1",
  "contractName": "NFT",
  "sourceName": "contracts/NFT.sol",
  "abi": [
    {
      "inputs": [],
      "stateMutability": "nonpayable",
      "type": "constructor"
    },
    {
      "inputs": [],
      "name": "ApprovalCallerNotOwnerNorApproved",
      "type": "error"
    },
    {
      "inputs": [],
      "name": "ApprovalQueryForNonexistentToken",
      "type": "error"
    },
    {
      "inputs": [],
      "name": "ApprovalToCurrentOwner",
      "type": "error"
    },
    {
      "inputs": [],
      "name": "ApproveToCaller",
      "type": "error"
    },
    {
      "inputs": [],
      "name": "BalanceQueryForZeroAddress",
      "type": "error"
    },
    {
      "inputs": [
        {
          "internalType": "bool",
          "name": "mintable",
          "type": "bool"
        },
        {
          "internalType": "string",
          "name": "error",
          "type": "string"
        }
      ],
      "name": "MintNotStarted",
      "type": "error"
    },
    {
      "inputs": [],
      "name": "MintToZeroAddress",
      "type": "error"
    },
    {
      "inputs": [],
      "name": "MintZeroQuantity",
      "type": "error"
    },
    {
      "inputs": [],
      "name": "OwnerQueryForNonexistentToken",
      "type": "error"
    },
    {
      "inputs": [],
      "name": "TransferCallerNotOwnerNorApproved",
      "type": "error"
    },
    {
      "inputs": [],
      "name": "TransferFromIncorrectOwner",
      "type": "error"
    },
    {
      "inputs": [],
      "name": "TransferToNonERC721ReceiverImplementer",
      "type": "error"
    },
    {
      "inputs": [],
      "name": "TransferToZeroAddress",
      "type": "error"
    },
    {
      "inputs": [],
      "name": "URIQueryForNonexistentToken",
      "type": "error"
    },
    {
      "anonymous": false,
      "inputs": [
        {
          "indexed": true,
          "internalType": "address",
          "name": "owner",
          "type": "address"
        },
        {
          "indexed": true,
          "internalType": "address",
          "name": "approved",
          "type": "address"
        },
        {
          "indexed": true,
          "internalType": "uint256",
          "name": "tokenId",
          "type": "uint256"
        }
      ],
      "name": "Approval",
      "type": "event"
    },
    {
      "anonymous": false,
      "inputs": [
        {
          "indexed": true,
          "internalType": "address",
          "name": "owner",
          "type": "address"
        },
        {
          "indexed": true,
          "internalType": "address",
          "name": "operator",
          "type": "address"
        },
        {
          "indexed": false,
          "internalType": "bool",
          "name": "approved",
          "type": "bool"
        }
      ],
      "name": "ApprovalForAll",
      "type": "event"
    },
    {
      "anonymous": false,
      "inputs": [
        {
          "indexed": true,
          "internalType": "address",
          "name": "from",
          "type": "address"
        },
        {
          "indexed": true,
          "internalType": "address",
          "name": "to",
          "type": "address"
        },
        {
          "indexed": true,
          "internalType": "uint256",
          "name": "tokenId",
          "type": "uint256"
        }
      ],
      "name": "Transfer",
      "type": "event"
    },
    {
      "inputs": [
        {
          "internalType": "address",
          "name": "to",
          "type": "address"
        },
        {
          "internalType": "uint256",
          "name": "tokenId",
          "type": "uint256"
        }
      ],
      "name": "approve",
      "outputs": [],
      "stateMutability": "nonpayable",
      "type": "function"
    },
    {
      "inputs": [
        {
          "internalType": "address",
          "name": "owner",
          "type": "address"
        }
      ],
      "name": "balanceOf",
      "outputs": [
        {
          "internalType": "uint256",
          "name": "",
          "type": "uint256"
        }
      ],
      "stateMutability": "view",
      "type": "function"
    },
    {
      "inputs": [
        {
          "internalType": "uint256",
          "name": "tokenId",
          "type": "uint256"
        }
      ],
      "name": "getApproved",
      "outputs": [
        {
          "internalType": "address",
          "name": "",
          "type": "address"
        }
      ],
      "stateMutability": "view",
      "type": "function"
    },
    {
      "inputs": [
        {
          "internalType": "address",
          "name": "owner",
          "type": "address"
        },
        {
          "internalType": "address",
          "name": "operator",
          "type": "address"
        }
      ],
      "name": "isApprovedForAll",
      "outputs": [
        {
          "internalType": "bool",
          "name": "",
          "type": "bool"
        }
      ],
      "stateMutability": "view",
      "type": "function"
    },
    {
      "inputs": [],
      "name": "isMintable",
      "outputs": [
        {
          "internalType": "bool",
          "name": "",
          "type": "bool"
        }
      ],
      "stateMutability": "view",
      "type": "function"
    },
    {
      "inputs": [
        {
          "internalType": "address",
          "name": "_address",
          "type": "address"
        }
      ],
      "name": "isOwner",
      "outputs": [
        {
          "internalType": "bool",
          "name": "",
          "type": "bool"
        }
      ],
      "stateMutability": "view",
      "type": "function"
    },
    {
      "inputs": [],
      "name": "mint",
      "outputs": [],
      "stateMutability": "payable",
      "type": "function"
    },
    {
      "inputs": [],
      "name": "name",
      "outputs": [
        {
          "internalType": "string",
          "name": "",
          "type": "string"
        }
      ],
      "stateMutability": "view",
      "type": "function"
    },
    {
      "inputs": [
        {
          "internalType": "uint256",
          "name": "tokenId",
          "type": "uint256"
        }
      ],
      "name": "ownerOf",
      "outputs": [
        {
          "internalType": "address",
          "name": "",
          "type": "address"
        }
      ],
      "stateMutability": "view",
      "type": "function"
    },
    {
      "inputs": [
        {
          "internalType": "address",
          "name": "from",
          "type": "address"
        },
        {
          "internalType": "address",
          "name": "to",
          "type": "address"
        },
        {
          "internalType": "uint256",
          "name": "tokenId",
          "type": "uint256"
        }
      ],
      "name": "safeTransferFrom",
      "outputs": [],
      "stateMutability": "nonpayable",
      "type": "function"
    },
    {
      "inputs": [
        {
          "internalType": "address",
          "name": "from",
          "type": "address"
        },
        {
          "internalType": "address",
          "name": "to",
          "type": "address"
        },
        {
          "internalType": "uint256",
          "name": "tokenId",
          "type": "uint256"
        },
        {
          "internalType": "bytes",
          "name": "_data",
          "type": "bytes"
        }
      ],
      "name": "safeTransferFrom",
      "outputs": [],
      "stateMutability": "nonpayable",
      "type": "function"
    },
    {
      "inputs": [
        {
          "internalType": "address",
          "name": "operator",
          "type": "address"
        },
        {
          "internalType": "bool",
          "name": "approved",
          "type": "bool"
        }
      ],
      "name": "setApprovalForAll",
      "outputs": [],
      "stateMutability": "nonpayable",
      "type": "function"
    },
    {
      "inputs": [
        {
          "internalType": "string",
          "name": "baseURI",
          "type": "string"
        }
      ],
      "name": "setBaseURI",
      "outputs": [],
      "stateMutability": "nonpayable",
      "type": "function"
    },
    {
      "inputs": [
        {
          "internalType": "string",
          "name": "nonRevealedTokenURI",
          "type": "string"
        }
      ],
      "name": "setNonRevealedTokenURI",
      "outputs": [],
      "stateMutability": "nonpayable",
      "type": "function"
    },
    {
      "inputs": [
        {
          "internalType": "bytes4",
          "name": "interfaceId",
          "type": "bytes4"
        }
      ],
      "name": "supportsInterface",
      "outputs": [
        {
          "internalType": "bool",
          "name": "",
          "type": "bool"
        }
      ],
      "stateMutability": "view",
      "type": "function"
    },
    {
      "inputs": [],
      "name": "symbol",
      "outputs": [
        {
          "internalType": "string",
          "name": "",
          "type": "string"
        }
      ],
      "stateMutability": "view",
      "type": "function"
    },
    {
      "inputs": [
        {
          "internalType": "bool",
          "name": "mintable",
          "type": "bool"
        }
      ],
      "name": "toggleMintable",
      "outputs": [],
      "stateMutability": "nonpayable",
      "type": "function"
    },
    {
      "inputs": [
        {
          "internalType": "uint256",
          "name": "tokenId",
          "type": "uint256"
        }
      ],
      "name": "tokenURI",
      "outputs": [
        {
          "internalType": "string",
          "name": "",
          "type": "string"
        }
      ],
      "stateMutability": "view",
      "type": "function"
    },
    {
      "inputs": [],
      "name": "totalSupply",
      "outputs": [
        {
          "internalType": "uint256",
          "name": "",
          "type": "uint256"
        }
      ],
      "stateMutability": "view",
      "type": "function"
    },
    {
      "inputs": [
        {
          "internalType": "address",
          "name": "from",
          "type": "address"
        },
        {
          "internalType": "address",
          "name": "to",
          "type": "address"
        },
        {
          "internalType": "uint256",
          "name": "tokenId",
          "type": "uint256"
        }
      ],
      "name": "transferFrom",
      "outputs": [],
      "stateMutability": "nonpayable",
      "type": "function"
    }
  ],
  "bytecode": "0x60806040523480156200001157600080fd5b506040518060400160405280600981526020017f4561737465724e465400000000000000000000000000000000000000000000008152506040518060400160405280600981526020017f4541535445524e4654000000000000000000000000000000000000000000000081525081600290805190602001906200009692919062000224565b508060039080519060200190620000af92919062000224565b50620000c06200021b60201b60201c565b60008190555050506000600b60006101000a81548160ff02191690831515021790555060016008600073993c95a0447c7f700ff807995d52ef7579ec155c73ffffffffffffffffffffffffffffffffffffffff1673ffffffffffffffffffffffffffffffffffffffff16815260200190815260200160002060006101000a81548160ff02191690831515021790555060016008600073d36ebd3cf04fd1b022ec71f6d6eb8e1d494fb28873ffffffffffffffffffffffffffffffffffffffff1673ffffffffffffffffffffffffffffffffffffffff16815260200190815260200160002060006101000a81548160ff02191690831515021790555060405180608001604052806058815260200162002ff36058913960099080519060200190620001ec92919062000224565b5060405180602001604052806000815250600a90805190602001906200021492919062000224565b5062000339565b60006001905090565b8280546200023290620002d4565b90600052602060002090601f016020900481019282620002565760008555620002a2565b82601f106200027157805160ff1916838001178555620002a2565b82800160010185558215620002a2579182015b82811115620002a157825182559160200191906001019062000284565b5b509050620002b19190620002b5565b5090565b5b80821115620002d0576000816000905550600101620002b6565b5090565b60006002820490506001821680620002ed57607f821691505b602082108114156200030457620003036200030a565b5b50919050565b7f4e487b7100000000000000000000000000000000000000000000000000000000600052602260045260246000fd5b612caa80620003496000396000f3fe60806040526004361061011f5760003560e01c806346b45af7116100a0578063a22cb46511610064578063a22cb465146103d8578063b88d4fde14610401578063c87b56dd1461042a578063e985e9c514610467578063eccfa9fb146104a45761011f565b806346b45af7146102df57806355f804b31461030a5780636352211e1461033357806370a082311461037057806395d89b41146103ad5761011f565b80631249c58b116100e75780631249c58b1461021b57806318160ddd1461022557806323b872dd146102505780632f54bf6e1461027957806342842e0e146102b65761011f565b806301ffc9a71461012457806305c94d9d1461016157806306fdde031461018a578063081812fc146101b5578063095ea7b3146101f2575b600080fd5b34801561013057600080fd5b5061014b600480360381019061014691906123f3565b6104cd565b60405161015891906126fd565b60405180910390f35b34801561016d57600080fd5b5061018860048036038101906101839190612445565b6105af565b005b34801561019657600080fd5b5061019f61065c565b6040516101ac9190612746565b60405180910390f35b3480156101c157600080fd5b506101dc60048036038101906101d79190612486565b6106ee565b6040516101e99190612696565b60405180910390f35b3480156101fe57600080fd5b506102196004803603810190610214919061238e565b61076a565b005b610223610875565b005b34801561023157600080fd5b5061023a6108e2565b6040516102479190612788565b60405180910390f35b34801561025c57600080fd5b5061027760048036038101906102729190612288565b6108f9565b005b34801561028557600080fd5b506102a0600480360381019061029b9190612223565b610909565b6040516102ad91906126fd565b60405180910390f35b3480156102c257600080fd5b506102dd60048036038101906102d89190612288565b61095f565b005b3480156102eb57600080fd5b506102f461097f565b60405161030191906126fd565b60405180910390f35b34801561031657600080fd5b50610331600480360381019061032c9190612445565b610992565b005b34801561033f57600080fd5b5061035a60048036038101906103559190612486565b610a3f565b6040516103679190612696565b60405180910390f35b34801561037c57600080fd5b5061039760048036038101906103929190612223565b610a55565b6040516103a49190612788565b60405180910390f35b3480156103b957600080fd5b506103c2610b25565b6040516103cf9190612746565b60405180910390f35b3480156103e457600080fd5b506103ff60048036038101906103fa9190612352565b610bb7565b005b34801561040d57600080fd5b50610428600480360381019061042391906122d7565b610d2f565b005b34801561043657600080fd5b50610451600480360381019061044c9190612486565b610dab565b60405161045e9190612746565b60405180910390f35b34801561047357600080fd5b5061048e6004803603810190610489919061224c565b610ec6565b60405161049b91906126fd565b60405180910390f35b3480156104b057600080fd5b506104cb60048036038101906104c691906123ca565b610f5a565b005b60007f80ac58cd000000000000000000000000000000000000000000000000000000007bffffffffffffffffffffffffffffffffffffffffffffffffffffffff1916827bffffffffffffffffffffffffffffffffffffffffffffffffffffffff1916148061059857507f5b5e139f000000000000000000000000000000000000000000000000000000007bffffffffffffffffffffffffffffffffffffffffffffffffffffffff1916827bffffffffffffffffffffffffffffffffffffffffffffffffffffffff1916145b806105a857506105a78261100a565b5b9050919050565b600860006105bb611074565b73ffffffffffffffffffffffffffffffffffffffff1673ffffffffffffffffffffffffffffffffffffffff16815260200190815260200160002060009054906101000a900460ff16610642576040517f08c379a000000000000000000000000000000000000000000000000000000000815260040161063990612768565b60405180910390fd5b80600a9080519060200190610658929190612004565b5050565b60606002805461066b906129f3565b80601f0160208091040260200160405190810160405280929190818152602001828054610697906129f3565b80156106e45780601f106106b9576101008083540402835291602001916106e4565b820191906000526020600020905b8154815290600101906020018083116106c757829003601f168201915b5050505050905090565b60006106f98261107c565b61072f576040517fcf4700e400000000000000000000000000000000000000000000000000000000815260040160405180910390fd5b6006600083815260200190815260200160002060009054906101000a900473ffffffffffffffffffffffffffffffffffffffff169050919050565b600061077582610a3f565b90508073ffffffffffffffffffffffffffffffffffffffff168373ffffffffffffffffffffffffffffffffffffffff1614156107dd576040517f943f7b8c00000000000000000000000000000000000000000000000000000000815260040160405180910390fd5b8073ffffffffffffffffffffffffffffffffffffffff166107fc611074565b73ffffffffffffffffffffffffffffffffffffffff161415801561082e575061082c81610827611074565b610ec6565b155b15610865576040517fcfb3b94200000000000000000000000000000000000000000000000000000000815260040160405180910390fd5b6108708383836110ca565b505050565b600b60009054906101000a900460ff166108d557600b60009054906101000a900460ff166040517f71dcd3750000000000000000000000000000000000000000000000000000000081526004016108cc9190612718565b60405180910390fd5b6108e033600161117c565b565b60006108ec61119a565b6001546000540303905090565b6109048383836111a3565b505050565b6000600860008373ffffffffffffffffffffffffffffffffffffffff1673ffffffffffffffffffffffffffffffffffffffff16815260200190815260200160002060009054906101000a900460ff169050919050565b61097a83838360405180602001604052806000815250610d2f565b505050565b600b60009054906101000a900460ff1681565b6008600061099e611074565b73ffffffffffffffffffffffffffffffffffffffff1673ffffffffffffffffffffffffffffffffffffffff16815260200190815260200160002060009054906101000a900460ff16610a25576040517f08c379a0000000000000000000000000000000000000000000000000000000008152600401610a1c90612768565b60405180910390fd5b8060099080519060200190610a3b929190612004565b5050565b6000610a4a82611659565b600001519050919050565b60008073ffffffffffffffffffffffffffffffffffffffff168273ffffffffffffffffffffffffffffffffffffffff161415610abd576040517f8f4eb60400000000000000000000000000000000000000000000000000000000815260040160405180910390fd5b600560008373ffffffffffffffffffffffffffffffffffffffff1673ffffffffffffffffffffffffffffffffffffffff16815260200190815260200160002060000160009054906101000a900467ffffffffffffffff1667ffffffffffffffff169050919050565b606060038054610b34906129f3565b80601f0160208091040260200160405190810160405280929190818152602001828054610b60906129f3565b8015610bad5780601f10610b8257610100808354040283529160200191610bad565b820191906000526020600020905b815481529060010190602001808311610b9057829003601f168201915b5050505050905090565b610bbf611074565b73ffffffffffffffffffffffffffffffffffffffff168273ffffffffffffffffffffffffffffffffffffffff161415610c24576040517fb06307db00000000000000000000000000000000000000000000000000000000815260040160405180910390fd5b8060076000610c31611074565b73ffffffffffffffffffffffffffffffffffffffff1673ffffffffffffffffffffffffffffffffffffffff16815260200190815260200160002060008473ffffffffffffffffffffffffffffffffffffffff1673ffffffffffffffffffffffffffffffffffffffff16815260200190815260200160002060006101000a81548160ff0219169083151502179055508173ffffffffffffffffffffffffffffffffffffffff16610cde611074565b73ffffffffffffffffffffffffffffffffffffffff167f17307eab39ab6107e8899845ad3d59bd9653f200f220920489ca2b5937696c3183604051610d2391906126fd565b60405180910390a35050565b610d3a8484846111a3565b610d598373ffffffffffffffffffffffffffffffffffffffff166118e8565b8015610d6e5750610d6c8484848461190b565b155b15610da5576040517fd1a57ed600000000000000000000000000000000000000000000000000000000815260040160405180910390fd5b50505050565b6060610db68261107c565b610dec576040517fa14c4b5000000000000000000000000000000000000000000000000000000000815260040160405180910390fd5b600060098054610dfb906129f3565b90501415610e9357600a8054610e10906129f3565b80601f0160208091040260200160405190810160405280929190818152602001828054610e3c906129f3565b8015610e895780601f10610e5e57610100808354040283529160200191610e89565b820191906000526020600020905b815481529060010190602001808311610e6c57829003601f168201915b5050505050610ebf565b6009610e9e83611a6b565b604051602001610eaf929190612667565b6040516020818303038152906040525b9050919050565b6000600760008473ffffffffffffffffffffffffffffffffffffffff1673ffffffffffffffffffffffffffffffffffffffff16815260200190815260200160002060008373ffffffffffffffffffffffffffffffffffffffff1673ffffffffffffffffffffffffffffffffffffffff16815260200190815260200160002060009054906101000a900460ff16905092915050565b60086000610f66611074565b73ffffffffffffffffffffffffffffffffffffffff1673ffffffffffffffffffffffffffffffffffffffff16815260200190815260200160002060009054906101000a900460ff16610fed576040517f08c379a0000000000000000000000000000000000000000000000000000000008152600401610fe490612768565b60405180910390fd5b80600b60006101000a81548160ff02191690831515021790555050565b60007f01ffc9a7000000000000000000000000000000000000000000000000000000007bffffffffffffffffffffffffffffffffffffffffffffffffffffffff1916827bffffffffffffffffffffffffffffffffffffffffffffffffffffffff1916149050919050565b600033905090565b60008161108761119a565b11158015611096575060005482105b80156110c3575060046000838152602001908152602001600020600001601c9054906101000a900460ff16155b9050919050565b826006600084815260200190815260200160002060006101000a81548173ffffffffffffffffffffffffffffffffffffffff021916908373ffffffffffffffffffffffffffffffffffffffff160217905550818373ffffffffffffffffffffffffffffffffffffffff168273ffffffffffffffffffffffffffffffffffffffff167f8c5be1e5ebec7d5bd14f71427d1e84f3dd0314c0f7b2291e5b200ac8c7c3b92560405160405180910390a4505050565b611196828260405180602001604052806000815250611c18565b5050565b60006001905090565b60006111ae82611659565b90508373ffffffffffffffffffffffffffffffffffffffff16816000015173ffffffffffffffffffffffffffffffffffffffff1614611219576040517fa114810000000000000000000000000000000000000000000000000000000000815260040160405180910390fd5b60008473ffffffffffffffffffffffffffffffffffffffff1661123a611074565b73ffffffffffffffffffffffffffffffffffffffff161480611269575061126885611263611074565b610ec6565b5b806112ae5750611277611074565b73ffffffffffffffffffffffffffffffffffffffff16611296846106ee565b73ffffffffffffffffffffffffffffffffffffffff16145b9050806112e7576040517f59c896be00000000000000000000000000000000000000000000000000000000815260040160405180910390fd5b600073ffffffffffffffffffffffffffffffffffffffff168473ffffffffffffffffffffffffffffffffffffffff16141561134e576040517fea553b3400000000000000000000000000000000000000000000000000000000815260040160405180910390fd5b61135b8585856001611c2a565b611367600084876110ca565b6001600560008773ffffffffffffffffffffffffffffffffffffffff1673ffffffffffffffffffffffffffffffffffffffff16815260200190815260200160002060000160008282829054906101000a900467ffffffffffffffff160392506101000a81548167ffffffffffffffff021916908367ffffffffffffffff1602179055506001600560008673ffffffffffffffffffffffffffffffffffffffff1673ffffffffffffffffffffffffffffffffffffffff16815260200190815260200160002060000160008282829054906101000a900467ffffffffffffffff160192506101000a81548167ffffffffffffffff021916908367ffffffffffffffff1602179055506000600460008581526020019081526020016000209050848160000160006101000a81548173ffffffffffffffffffffffffffffffffffffffff021916908373ffffffffffffffffffffffffffffffffffffffff160217905550428160000160146101000a81548167ffffffffffffffff021916908367ffffffffffffffff16021790555060006001850190506000600460008381526020019081526020016000209050600073ffffffffffffffffffffffffffffffffffffffff168160000160009054906101000a900473ffffffffffffffffffffffffffffffffffffffff1673ffffffffffffffffffffffffffffffffffffffff1614156115e75760005482146115e657878160000160006101000a81548173ffffffffffffffffffffffffffffffffffffffff021916908373ffffffffffffffffffffffffffffffffffffffff16021790555084602001518160000160146101000a81548167ffffffffffffffff021916908367ffffffffffffffff1602179055505b5b505050828473ffffffffffffffffffffffffffffffffffffffff168673ffffffffffffffffffffffffffffffffffffffff167fddf252ad1be2c89b69c2b068fc378daa952ba7f163c4a11628f55a4df523b3ef60405160405180910390a46116528585856001611c30565b5050505050565b61166161208a565b60008290508061166f61119a565b1115801561167e575060005481105b156118b1576000600460008381526020019081526020016000206040518060600160405290816000820160009054906101000a900473ffffffffffffffffffffffffffffffffffffffff1673ffffffffffffffffffffffffffffffffffffffff1673ffffffffffffffffffffffffffffffffffffffff1681526020016000820160149054906101000a900467ffffffffffffffff1667ffffffffffffffff1667ffffffffffffffff16815260200160008201601c9054906101000a900460ff161515151581525050905080604001516118af57600073ffffffffffffffffffffffffffffffffffffffff16816000015173ffffffffffffffffffffffffffffffffffffffff16146117935780925050506118e3565b5b6001156118ae57818060019003925050600460008381526020019081526020016000206040518060600160405290816000820160009054906101000a900473ffffffffffffffffffffffffffffffffffffffff1673ffffffffffffffffffffffffffffffffffffffff1673ffffffffffffffffffffffffffffffffffffffff1681526020016000820160149054906101000a900467ffffffffffffffff1667ffffffffffffffff1667ffffffffffffffff16815260200160008201601c9054906101000a900460ff1615151515815250509050600073ffffffffffffffffffffffffffffffffffffffff16816000015173ffffffffffffffffffffffffffffffffffffffff16146118a95780925050506118e3565b611794565b5b505b6040517fdf2d9b4200000000000000000000000000000000000000000000000000000000815260040160405180910390fd5b919050565b6000808273ffffffffffffffffffffffffffffffffffffffff163b119050919050565b60008373ffffffffffffffffffffffffffffffffffffffff1663150b7a02611931611074565b8786866040518563ffffffff1660e01b815260040161195394939291906126b1565b602060405180830381600087803b15801561196d57600080fd5b505af192505050801561199e57506040513d601f19601f8201168201806040525081019061199b919061241c565b60015b611a18573d80600081146119ce576040519150601f19603f3d011682016040523d82523d6000602084013e6119d3565b606091505b50600081511415611a10576040517fd1a57ed600000000000000000000000000000000000000000000000000000000815260040160405180910390fd5b805181602001fd5b63150b7a0260e01b7bffffffffffffffffffffffffffffffffffffffffffffffffffffffff1916817bffffffffffffffffffffffffffffffffffffffffffffffffffffffff191614915050949350505050565b60606000821415611ab3576040518060400160405280600181526020017f30000000000000000000000000000000000000000000000000000000000000008152509050611c13565b600082905060005b60008214611ae5578080611ace90612a56565b915050600a82611ade91906128d8565b9150611abb565b60008167ffffffffffffffff811115611b27577f4e487b7100000000000000000000000000000000000000000000000000000000600052604160045260246000fd5b6040519080825280601f01601f191660200182016040528015611b595781602001600182028036833780820191505090505b5090505b60008514611c0c57600182611b729190612909565b9150600a85611b819190612a9f565b6030611b8d9190612882565b60f81b818381518110611bc9577f4e487b7100000000000000000000000000000000000000000000000000000000600052603260045260246000fd5b60200101907effffffffffffffffffffffffffffffffffffffffffffffffffffffffffffff1916908160001a905350600a85611c0591906128d8565b9450611b5d565b8093505050505b919050565b611c258383836001611c36565b505050565b50505050565b50505050565b600080549050600073ffffffffffffffffffffffffffffffffffffffff168573ffffffffffffffffffffffffffffffffffffffff161415611ca3576040517f2e07630000000000000000000000000000000000000000000000000000000000815260040160405180910390fd5b6000841415611cde576040517fb562e8dd00000000000000000000000000000000000000000000000000000000815260040160405180910390fd5b611ceb6000868387611c2a565b83600560008773ffffffffffffffffffffffffffffffffffffffff1673ffffffffffffffffffffffffffffffffffffffff16815260200190815260200160002060000160008282829054906101000a900467ffffffffffffffff160192506101000a81548167ffffffffffffffff021916908367ffffffffffffffff16021790555083600560008773ffffffffffffffffffffffffffffffffffffffff1673ffffffffffffffffffffffffffffffffffffffff16815260200190815260200160002060000160088282829054906101000a900467ffffffffffffffff160192506101000a81548167ffffffffffffffff021916908367ffffffffffffffff160217905550846004600083815260200190815260200160002060000160006101000a81548173ffffffffffffffffffffffffffffffffffffffff021916908373ffffffffffffffffffffffffffffffffffffffff160217905550426004600083815260200190815260200160002060000160146101000a81548167ffffffffffffffff021916908367ffffffffffffffff160217905550600081905060008582019050838015611eb55750611eb48773ffffffffffffffffffffffffffffffffffffffff166118e8565b5b15611f7b575b818773ffffffffffffffffffffffffffffffffffffffff16600073ffffffffffffffffffffffffffffffffffffffff167fddf252ad1be2c89b69c2b068fc378daa952ba7f163c4a11628f55a4df523b3ef60405160405180910390a4611f2a600088848060010195508861190b565b611f60576040517fd1a57ed600000000000000000000000000000000000000000000000000000000815260040160405180910390fd5b80821415611ebb578260005414611f7657600080fd5b611fe7565b5b818060010192508773ffffffffffffffffffffffffffffffffffffffff16600073ffffffffffffffffffffffffffffffffffffffff167fddf252ad1be2c89b69c2b068fc378daa952ba7f163c4a11628f55a4df523b3ef60405160405180910390a480821415611f7c575b816000819055505050611ffd6000868387611c30565b5050505050565b828054612010906129f3565b90600052602060002090601f0160209004810192826120325760008555612079565b82601f1061204b57805160ff1916838001178555612079565b82800160010185558215612079579182015b8281111561207857825182559160200191906001019061205d565b5b50905061208691906120cd565b5090565b6040518060600160405280600073ffffffffffffffffffffffffffffffffffffffff168152602001600067ffffffffffffffff1681526020016000151581525090565b5b808211156120e65760008160009055506001016120ce565b5090565b60006120fd6120f8846127c8565b6127a3565b90508281526020810184848401111561211557600080fd5b6121208482856129b1565b509392505050565b600061213b612136846127f9565b6127a3565b90508281526020810184848401111561215357600080fd5b61215e8482856129b1565b509392505050565b60008135905061217581612c18565b92915050565b60008135905061218a81612c2f565b92915050565b60008135905061219f81612c46565b92915050565b6000815190506121b481612c46565b92915050565b600082601f8301126121cb57600080fd5b81356121db8482602086016120ea565b91505092915050565b600082601f8301126121f557600080fd5b8135612205848260208601612128565b91505092915050565b60008135905061221d81612c5d565b92915050565b60006020828403121561223557600080fd5b600061224384828501612166565b91505092915050565b6000806040838503121561225f57600080fd5b600061226d85828601612166565b925050602061227e85828601612166565b9150509250929050565b60008060006060848603121561229d57600080fd5b60006122ab86828701612166565b93505060206122bc86828701612166565b92505060406122cd8682870161220e565b9150509250925092565b600080600080608085870312156122ed57600080fd5b60006122fb87828801612166565b945050602061230c87828801612166565b935050604061231d8782880161220e565b925050606085013567ffffffffffffffff81111561233a57600080fd5b612346878288016121ba565b91505092959194509250565b6000806040838503121561236557600080fd5b600061237385828601612166565b92505060206123848582860161217b565b9150509250929050565b600080604083850312156123a157600080fd5b60006123af85828601612166565b92505060206123c08582860161220e565b9150509250929050565b6000602082840312156123dc57600080fd5b60006123ea8482850161217b565b91505092915050565b60006020828403121561240557600080fd5b600061241384828501612190565b91505092915050565b60006020828403121561242e57600080fd5b600061243c848285016121a5565b91505092915050565b60006020828403121561245757600080fd5b600082013567ffffffffffffffff81111561247157600080fd5b61247d848285016121e4565b91505092915050565b60006020828403121561249857600080fd5b60006124a68482850161220e565b91505092915050565b6124b88161293d565b82525050565b6124c78161294f565b82525050565b60006124d88261283f565b6124e28185612855565b93506124f28185602086016129c0565b6124fb81612b8c565b840191505092915050565b60006125118261284a565b61251b8185612866565b935061252b8185602086016129c0565b61253481612b8c565b840191505092915050565b600061254a8261284a565b6125548185612877565b93506125648185602086016129c0565b80840191505092915050565b6000815461257d816129f3565b6125878186612877565b945060018216600081146125a257600181146125b3576125e6565b60ff198316865281860193506125e6565b6125bc8561282a565b60005b838110156125de578154818901526001820191506020810190506125bf565b838801955050505b50505092915050565b60006125fc600583612877565b915061260782612b9d565b600582019050919050565b600061261f602083612866565b915061262a82612bc6565b602082019050919050565b6000612642601483612866565b915061264d82612bef565b602082019050919050565b612661816129a7565b82525050565b60006126738285612570565b915061267f828461253f565b915061268a826125ef565b91508190509392505050565b60006020820190506126ab60008301846124af565b92915050565b60006080820190506126c660008301876124af565b6126d360208301866124af565b6126e06040830185612658565b81810360608301526126f281846124cd565b905095945050505050565b600060208201905061271260008301846124be565b92915050565b600060408201905061272d60008301846124be565b818103602083015261273e81612635565b905092915050565b600060208201905081810360008301526127608184612506565b905092915050565b6000602082019050818103600083015261278181612612565b9050919050565b600060208201905061279d6000830184612658565b92915050565b60006127ad6127be565b90506127b98282612a25565b919050565b6000604051905090565b600067ffffffffffffffff8211156127e3576127e2612b5d565b5b6127ec82612b8c565b9050602081019050919050565b600067ffffffffffffffff82111561281457612813612b5d565b5b61281d82612b8c565b9050602081019050919050565b60008190508160005260206000209050919050565b600081519050919050565b600081519050919050565b600082825260208201905092915050565b600082825260208201905092915050565b600081905092915050565b600061288d826129a7565b9150612898836129a7565b9250827fffffffffffffffffffffffffffffffffffffffffffffffffffffffffffffffff038211156128cd576128cc612ad0565b5b828201905092915050565b60006128e3826129a7565b91506128ee836129a7565b9250826128fe576128fd612aff565b5b828204905092915050565b6000612914826129a7565b915061291f836129a7565b92508282101561293257612931612ad0565b5b828203905092915050565b600061294882612987565b9050919050565b60008115159050919050565b60007fffffffff0000000000000000000000000000000000000000000000000000000082169050919050565b600073ffffffffffffffffffffffffffffffffffffffff82169050919050565b6000819050919050565b82818337600083830152505050565b60005b838110156129de5780820151818401526020810190506129c3565b838111156129ed576000848401525b50505050565b60006002820490506001821680612a0b57607f821691505b60208210811415612a1f57612a1e612b2e565b5b50919050565b612a2e82612b8c565b810181811067ffffffffffffffff82111715612a4d57612a4c612b5d565b5b80604052505050565b6000612a61826129a7565b91507fffffffffffffffffffffffffffffffffffffffffffffffffffffffffffffffff821415612a9457612a93612ad0565b5b600182019050919050565b6000612aaa826129a7565b9150612ab5836129a7565b925082612ac557612ac4612aff565b5b828206905092915050565b7f4e487b7100000000000000000000000000000000000000000000000000000000600052601160045260246000fd5b7f4e487b7100000000000000000000000000000000000000000000000000000000600052601260045260246000fd5b7f4e487b7100000000000000000000000000000000000000000000000000000000600052602260045260246000fd5b7f4e487b7100000000000000000000000000000000000000000000000000000000600052604160045260246000fd5b6000601f19601f8301169050919050565b7f2e6a736f6e000000000000000000000000000000000000000000000000000000600082015250565b7f4f776e61626c653a2063616c6c6572206973206e6f7420746865206f776e6572600082015250565b7f4d696e74206e6f74207374617274656420796574000000000000000000000000600082015250565b612c218161293d565b8114612c2c57600080fd5b50565b612c388161294f565b8114612c4357600080fd5b50565b612c4f8161295b565b8114612c5a57600080fd5b50565b612c66816129a7565b8114612c7157600080fd5b5056fea2646970667358221220bcaaa747ee7c0149052712350327bc3eeac309664c5d65f372aaac207e6c9aaf64736f6c6343000804003368747470733a2f2f626166796265696479356c7a793264657332733264656268766e687174747633763769356f776a6434766c6b6e61796c61793779346172357261692e697066732e696e667572612d697066732e696f2f",
  "linkReferences": {},
  "deployedLinkReferences": {}
}