{
  "_format": "hh-sol-artifact-1",
  "contractName": "NFT",
  "sourceName": "contracts/NFT.sol",
  "abi": [
    {
      "inputs": [],
      "stateMutability": "nonpayable",
      "type": "constructor"
    },
    {
      "inputs": [],
      "name": "ApprovalCallerNotOwnerNorApproved",
      "type": "error"
    },
    {
      "inputs": [],
      "name": "ApprovalQueryForNonexistentToken",
      "type": "error"
    },
    {
      "inputs": [],
      "name": "ApprovalToCurrentOwner",
      "type": "error"
    },
    {
      "inputs": [],
      "name": "ApproveToCaller",
      "type": "error"
    },
    {
      "inputs": [],
      "name": "BalanceQueryForZeroAddress",
      "type": "error"
    },
    {
      "inputs": [
        {
          "internalType": "string",
          "name": "error",
          "type": "string"
        }
      ],
      "name": "MintFinished",
      "type": "error"
    },
    {
      "inputs": [
        {
          "internalType": "string",
          "name": "error",
          "type": "string"
        }
      ],
      "name": "MintNotStarted",
      "type": "error"
    },
    {
      "inputs": [
        {
          "internalType": "string",
          "name": "error",
          "type": "string"
        }
      ],
      "name": "MintPriceNotPaid",
      "type": "error"
    },
    {
      "inputs": [],
      "name": "MintToZeroAddress",
      "type": "error"
    },
    {
      "inputs": [],
      "name": "MintZeroQuantity",
      "type": "error"
    },
    {
      "inputs": [],
      "name": "OwnerQueryForNonexistentToken",
      "type": "error"
    },
    {
      "inputs": [],
      "name": "TransferCallerNotOwnerNorApproved",
      "type": "error"
    },
    {
      "inputs": [],
      "name": "TransferFromIncorrectOwner",
      "type": "error"
    },
    {
      "inputs": [],
      "name": "TransferToNonERC721ReceiverImplementer",
      "type": "error"
    },
    {
      "inputs": [],
      "name": "TransferToZeroAddress",
      "type": "error"
    },
    {
      "inputs": [],
      "name": "URIQueryForNonexistentToken",
      "type": "error"
    },
    {
      "anonymous": false,
      "inputs": [
        {
          "indexed": true,
          "internalType": "address",
          "name": "owner",
          "type": "address"
        },
        {
          "indexed": true,
          "internalType": "address",
          "name": "approved",
          "type": "address"
        },
        {
          "indexed": true,
          "internalType": "uint256",
          "name": "tokenId",
          "type": "uint256"
        }
      ],
      "name": "Approval",
      "type": "event"
    },
    {
      "anonymous": false,
      "inputs": [
        {
          "indexed": true,
          "internalType": "address",
          "name": "owner",
          "type": "address"
        },
        {
          "indexed": true,
          "internalType": "address",
          "name": "operator",
          "type": "address"
        },
        {
          "indexed": false,
          "internalType": "bool",
          "name": "approved",
          "type": "bool"
        }
      ],
      "name": "ApprovalForAll",
      "type": "event"
    },
    {
      "anonymous": false,
      "inputs": [
        {
          "indexed": true,
          "internalType": "address",
          "name": "from",
          "type": "address"
        },
        {
          "indexed": true,
          "internalType": "address",
          "name": "to",
          "type": "address"
        },
        {
          "indexed": true,
          "internalType": "uint256",
          "name": "tokenId",
          "type": "uint256"
        }
      ],
      "name": "Transfer",
      "type": "event"
    },
    {
      "inputs": [
        {
          "internalType": "address",
          "name": "to",
          "type": "address"
        },
        {
          "internalType": "uint256",
          "name": "tokenId",
          "type": "uint256"
        }
      ],
      "name": "approve",
      "outputs": [],
      "stateMutability": "nonpayable",
      "type": "function"
    },
    {
      "inputs": [
        {
          "internalType": "address",
          "name": "owner",
          "type": "address"
        }
      ],
      "name": "balanceOf",
      "outputs": [
        {
          "internalType": "uint256",
          "name": "",
          "type": "uint256"
        }
      ],
      "stateMutability": "view",
      "type": "function"
    },
    {
      "inputs": [
        {
          "internalType": "uint256",
          "name": "tokenId",
          "type": "uint256"
        }
      ],
      "name": "getApproved",
      "outputs": [
        {
          "internalType": "address",
          "name": "",
          "type": "address"
        }
      ],
      "stateMutability": "view",
      "type": "function"
    },
    {
      "inputs": [],
      "name": "getPrice",
      "outputs": [
        {
          "internalType": "uint256",
          "name": "",
          "type": "uint256"
        }
      ],
      "stateMutability": "view",
      "type": "function"
    },
    {
      "inputs": [
        {
          "internalType": "address",
          "name": "owner",
          "type": "address"
        },
        {
          "internalType": "address",
          "name": "operator",
          "type": "address"
        }
      ],
      "name": "isApprovedForAll",
      "outputs": [
        {
          "internalType": "bool",
          "name": "",
          "type": "bool"
        }
      ],
      "stateMutability": "view",
      "type": "function"
    },
    {
      "inputs": [
        {
          "internalType": "address",
          "name": "_address",
          "type": "address"
        }
      ],
      "name": "isContractOwner",
      "outputs": [
        {
          "internalType": "bool",
          "name": "",
          "type": "bool"
        }
      ],
      "stateMutability": "view",
      "type": "function"
    },
    {
      "inputs": [],
      "name": "isMintable",
      "outputs": [
        {
          "internalType": "bool",
          "name": "",
          "type": "bool"
        }
      ],
      "stateMutability": "view",
      "type": "function"
    },
    {
      "inputs": [],
      "name": "maxSupply",
      "outputs": [
        {
          "internalType": "uint256",
          "name": "",
          "type": "uint256"
        }
      ],
      "stateMutability": "view",
      "type": "function"
    },
    {
      "inputs": [],
      "name": "mint",
      "outputs": [],
      "stateMutability": "payable",
      "type": "function"
    },
    {
      "inputs": [],
      "name": "name",
      "outputs": [
        {
          "internalType": "string",
          "name": "",
          "type": "string"
        }
      ],
      "stateMutability": "view",
      "type": "function"
    },
    {
      "inputs": [
        {
          "internalType": "uint256",
          "name": "tokenId",
          "type": "uint256"
        }
      ],
      "name": "ownerOf",
      "outputs": [
        {
          "internalType": "address",
          "name": "",
          "type": "address"
        }
      ],
      "stateMutability": "view",
      "type": "function"
    },
    {
      "inputs": [
        {
          "internalType": "address",
          "name": "from",
          "type": "address"
        },
        {
          "internalType": "address",
          "name": "to",
          "type": "address"
        },
        {
          "internalType": "uint256",
          "name": "tokenId",
          "type": "uint256"
        }
      ],
      "name": "safeTransferFrom",
      "outputs": [],
      "stateMutability": "nonpayable",
      "type": "function"
    },
    {
      "inputs": [
        {
          "internalType": "address",
          "name": "from",
          "type": "address"
        },
        {
          "internalType": "address",
          "name": "to",
          "type": "address"
        },
        {
          "internalType": "uint256",
          "name": "tokenId",
          "type": "uint256"
        },
        {
          "internalType": "bytes",
          "name": "_data",
          "type": "bytes"
        }
      ],
      "name": "safeTransferFrom",
      "outputs": [],
      "stateMutability": "nonpayable",
      "type": "function"
    },
    {
      "inputs": [
        {
          "internalType": "address",
          "name": "operator",
          "type": "address"
        },
        {
          "internalType": "bool",
          "name": "approved",
          "type": "bool"
        }
      ],
      "name": "setApprovalForAll",
      "outputs": [],
      "stateMutability": "nonpayable",
      "type": "function"
    },
    {
      "inputs": [
        {
          "internalType": "string",
          "name": "baseURI",
          "type": "string"
        }
      ],
      "name": "setBaseURI",
      "outputs": [],
      "stateMutability": "nonpayable",
      "type": "function"
    },
    {
      "inputs": [
        {
          "internalType": "string",
          "name": "nonRevealedTokenURI",
          "type": "string"
        }
      ],
      "name": "setNonRevealedTokenURI",
      "outputs": [],
      "stateMutability": "nonpayable",
      "type": "function"
    },
    {
      "inputs": [
        {
          "internalType": "uint256",
          "name": "_newPrice",
          "type": "uint256"
        }
      ],
      "name": "setPrice",
      "outputs": [],
      "stateMutability": "nonpayable",
      "type": "function"
    },
    {
      "inputs": [
        {
          "internalType": "bytes4",
          "name": "interfaceId",
          "type": "bytes4"
        }
      ],
      "name": "supportsInterface",
      "outputs": [
        {
          "internalType": "bool",
          "name": "",
          "type": "bool"
        }
      ],
      "stateMutability": "view",
      "type": "function"
    },
    {
      "inputs": [],
      "name": "symbol",
      "outputs": [
        {
          "internalType": "string",
          "name": "",
          "type": "string"
        }
      ],
      "stateMutability": "view",
      "type": "function"
    },
    {
      "inputs": [
        {
          "internalType": "bool",
          "name": "mintable",
          "type": "bool"
        }
      ],
      "name": "toggleMintable",
      "outputs": [],
      "stateMutability": "nonpayable",
      "type": "function"
    },
    {
      "inputs": [
        {
          "internalType": "uint256",
          "name": "tokenId",
          "type": "uint256"
        }
      ],
      "name": "tokenURI",
      "outputs": [
        {
          "internalType": "string",
          "name": "",
          "type": "string"
        }
      ],
      "stateMutability": "view",
      "type": "function"
    },
    {
      "inputs": [],
      "name": "totalMinted",
      "outputs": [
        {
          "internalType": "uint256",
          "name": "",
          "type": "uint256"
        }
      ],
      "stateMutability": "view",
      "type": "function"
    },
    {
      "inputs": [],
      "name": "totalSupply",
      "outputs": [
        {
          "internalType": "uint256",
          "name": "",
          "type": "uint256"
        }
      ],
      "stateMutability": "view",
      "type": "function"
    },
    {
      "inputs": [
        {
          "internalType": "address",
          "name": "from",
          "type": "address"
        },
        {
          "internalType": "address",
          "name": "to",
          "type": "address"
        },
        {
          "internalType": "uint256",
          "name": "tokenId",
          "type": "uint256"
        }
      ],
      "name": "transferFrom",
      "outputs": [],
      "stateMutability": "nonpayable",
      "type": "function"
    },
    {
      "inputs": [],
      "name": "withdrawAll",
      "outputs": [],
      "stateMutability": "payable",
      "type": "function"
    }
  ],
  "bytecode": "0x60806040526040518060800160405280605881526020016200345c60589139600990805190602001906200003592919062000276565b506001600b60006101000a81548160ff021916908315150217905550610190600c556000600d553480156200006957600080fd5b506040518060400160405280600981526020017f4561737465724e465400000000000000000000000000000000000000000000008152506040518060400160405280600981526020017f4541535445524e465400000000000000000000000000000000000000000000008152508160029080519060200190620000ee92919062000276565b5080600390805190602001906200010792919062000276565b50620001186200026560201b60201c565b600081905550505060016008600073993c95a0447c7f700ff807995d52ef7579ec155c73ffffffffffffffffffffffffffffffffffffffff1673ffffffffffffffffffffffffffffffffffffffff16815260200190815260200160002060006101000a81548160ff02191690831515021790555060016008600073d36ebd3cf04fd1b022ec71f6d6eb8e1d494fb28873ffffffffffffffffffffffffffffffffffffffff1673ffffffffffffffffffffffffffffffffffffffff16815260200190815260200160002060006101000a81548160ff0219169083151502179055506001600860006200020e6200026e60201b60201c565b73ffffffffffffffffffffffffffffffffffffffff1673ffffffffffffffffffffffffffffffffffffffff16815260200190815260200160002060006101000a81548160ff0219169083151502179055506200038b565b60006001905090565b600033905090565b828054620002849062000326565b90600052602060002090601f016020900481019282620002a85760008555620002f4565b82601f10620002c357805160ff1916838001178555620002f4565b82800160010185558215620002f4579182015b82811115620002f3578251825591602001919060010190620002d6565b5b50905062000303919062000307565b5090565b5b808211156200032257600081600090555060010162000308565b5090565b600060028204905060018216806200033f57607f821691505b602082108114156200035657620003556200035c565b5b50919050565b7f4e487b7100000000000000000000000000000000000000000000000000000000600052602260045260246000fd5b6130c1806200039b6000396000f3fe6080604052600436106101665760003560e01c806370a08231116100d1578063a2309ff81161008a578063d5abeb0111610064578063d5abeb01146104fa578063de11768814610525578063e985e9c514610562578063eccfa9fb1461059f57610166565b8063a2309ff814610469578063b88d4fde14610494578063c87b56dd146104bd57610166565b806370a082311461037a578063853828b6146103b757806391b7f5ed146103c157806395d89b41146103ea57806398d5fdca14610415578063a22cb4651461044057610166565b806318160ddd1161012357806318160ddd1461026c57806323b872dd1461029757806342842e0e146102c057806346b45af7146102e957806355f804b3146103145780636352211e1461033d57610166565b806301ffc9a71461016b57806305c94d9d146101a857806306fdde03146101d1578063081812fc146101fc578063095ea7b3146102395780631249c58b14610262575b600080fd5b34801561017757600080fd5b50610192600480360381019061018d919061271a565b6105c8565b60405161019f9190612a6a565b60405180910390f35b3480156101b457600080fd5b506101cf60048036038101906101ca919061276c565b6106aa565b005b3480156101dd57600080fd5b506101e6610757565b6040516101f39190612a85565b60405180910390f35b34801561020857600080fd5b50610223600480360381019061021e91906127ad565b6107e9565b6040516102309190612a03565b60405180910390f35b34801561024557600080fd5b50610260600480360381019061025b91906126b5565b610865565b005b61026a610970565b005b34801561027857600080fd5b50610281610a5c565b60405161028e9190612b27565b60405180910390f35b3480156102a357600080fd5b506102be60048036038101906102b991906125af565b610a73565b005b3480156102cc57600080fd5b506102e760048036038101906102e291906125af565b610a83565b005b3480156102f557600080fd5b506102fe610aa3565b60405161030b9190612a6a565b60405180910390f35b34801561032057600080fd5b5061033b6004803603810190610336919061276c565b610ab6565b005b34801561034957600080fd5b50610364600480360381019061035f91906127ad565b610b63565b6040516103719190612a03565b60405180910390f35b34801561038657600080fd5b506103a1600480360381019061039c919061254a565b610b79565b6040516103ae9190612b27565b60405180910390f35b6103bf610c49565b005b3480156103cd57600080fd5b506103e860048036038101906103e391906127ad565b610d23565b005b3480156103f657600080fd5b506103ff610dc0565b60405161040c9190612a85565b60405180910390f35b34801561042157600080fd5b5061042a610e52565b6040516104379190612b27565b60405180910390f35b34801561044c57600080fd5b5061046760048036038101906104629190612679565b610e5c565b005b34801561047557600080fd5b5061047e610fd4565b60405161048b9190612b27565b60405180910390f35b3480156104a057600080fd5b506104bb60048036038101906104b691906125fe565b610fe7565b005b3480156104c957600080fd5b506104e460048036038101906104df91906127ad565b611063565b6040516104f19190612a85565b60405180910390f35b34801561050657600080fd5b5061050f61117e565b60405161051c9190612b27565b60405180910390f35b34801561053157600080fd5b5061054c6004803603810190610547919061254a565b611184565b6040516105599190612a6a565b60405180910390f35b34801561056e57600080fd5b5061058960048036038101906105849190612573565b6111da565b6040516105969190612a6a565b60405180910390f35b3480156105ab57600080fd5b506105c660048036038101906105c191906126f1565b61126e565b005b60007f80ac58cd000000000000000000000000000000000000000000000000000000007bffffffffffffffffffffffffffffffffffffffffffffffffffffffff1916827bffffffffffffffffffffffffffffffffffffffffffffffffffffffff1916148061069357507f5b5e139f000000000000000000000000000000000000000000000000000000007bffffffffffffffffffffffffffffffffffffffffffffffffffffffff1916827bffffffffffffffffffffffffffffffffffffffffffffffffffffffff1916145b806106a357506106a28261131e565b5b9050919050565b600860006106b6611388565b73ffffffffffffffffffffffffffffffffffffffff1673ffffffffffffffffffffffffffffffffffffffff16815260200190815260200160002060009054906101000a900460ff1661073d576040517f08c379a000000000000000000000000000000000000000000000000000000000815260040161073490612b07565b60405180910390fd5b80600a908051906020019061075392919061232b565b5050565b60606002805461076690612d92565b80601f016020809104026020016040519081016040528092919081815260200182805461079290612d92565b80156107df5780601f106107b4576101008083540402835291602001916107df565b820191906000526020600020905b8154815290600101906020018083116107c257829003601f168201915b5050505050905090565b60006107f482611390565b61082a576040517fcf4700e400000000000000000000000000000000000000000000000000000000815260040160405180910390fd5b6006600083815260200190815260200160002060009054906101000a900473ffffffffffffffffffffffffffffffffffffffff169050919050565b600061087082610b63565b90508073ffffffffffffffffffffffffffffffffffffffff168373ffffffffffffffffffffffffffffffffffffffff1614156108d8576040517f943f7b8c00000000000000000000000000000000000000000000000000000000815260040160405180910390fd5b8073ffffffffffffffffffffffffffffffffffffffff166108f7611388565b73ffffffffffffffffffffffffffffffffffffffff1614158015610929575061092781610922611388565b6111da565b155b15610960576040517fcfb3b94200000000000000000000000000000000000000000000000000000000815260040160405180910390fd5b61096b8383836113de565b505050565b600b60009054906101000a900460ff166109bf576040517fc07ac9080000000000000000000000000000000000000000000000000000000081526004016109b690612ae7565b60405180910390fd5b600c546109ca611490565b10610a0a576040517ffcccdb63000000000000000000000000000000000000000000000000000000008152600401610a0190612aa7565b60405180910390fd5b600d54341015610a4f576040517ff0cc4ef6000000000000000000000000000000000000000000000000000000008152600401610a4690612ac7565b60405180910390fd5b610a5a3360016114a3565b565b6000610a666114c1565b6001546000540303905090565b610a7e8383836114ca565b505050565b610a9e83838360405180602001604052806000815250610fe7565b505050565b600b60009054906101000a900460ff1681565b60086000610ac2611388565b73ffffffffffffffffffffffffffffffffffffffff1673ffffffffffffffffffffffffffffffffffffffff16815260200190815260200160002060009054906101000a900460ff16610b49576040517f08c379a0000000000000000000000000000000000000000000000000000000008152600401610b4090612b07565b60405180910390fd5b8060099080519060200190610b5f92919061232b565b5050565b6000610b6e82611980565b600001519050919050565b60008073ffffffffffffffffffffffffffffffffffffffff168273ffffffffffffffffffffffffffffffffffffffff161415610be1576040517f8f4eb60400000000000000000000000000000000000000000000000000000000815260040160405180910390fd5b600560008373ffffffffffffffffffffffffffffffffffffffff1673ffffffffffffffffffffffffffffffffffffffff16815260200190815260200160002060000160009054906101000a900467ffffffffffffffff1667ffffffffffffffff169050919050565b60086000610c55611388565b73ffffffffffffffffffffffffffffffffffffffff1673ffffffffffffffffffffffffffffffffffffffff16815260200190815260200160002060009054906101000a900460ff16610cdc576040517f08c379a0000000000000000000000000000000000000000000000000000000008152600401610cd390612b07565b60405180910390fd5b610ce4611388565b73ffffffffffffffffffffffffffffffffffffffff166108fc479081150290604051600060405180830381858888f19350505050610d2157600080fd5b565b60086000610d2f611388565b73ffffffffffffffffffffffffffffffffffffffff1673ffffffffffffffffffffffffffffffffffffffff16815260200190815260200160002060009054906101000a900460ff16610db6576040517f08c379a0000000000000000000000000000000000000000000000000000000008152600401610dad90612b07565b60405180910390fd5b80600d8190555050565b606060038054610dcf90612d92565b80601f0160208091040260200160405190810160405280929190818152602001828054610dfb90612d92565b8015610e485780601f10610e1d57610100808354040283529160200191610e48565b820191906000526020600020905b815481529060010190602001808311610e2b57829003601f168201915b5050505050905090565b6000600d54905090565b610e64611388565b73ffffffffffffffffffffffffffffffffffffffff168273ffffffffffffffffffffffffffffffffffffffff161415610ec9576040517fb06307db00000000000000000000000000000000000000000000000000000000815260040160405180910390fd5b8060076000610ed6611388565b73ffffffffffffffffffffffffffffffffffffffff1673ffffffffffffffffffffffffffffffffffffffff16815260200190815260200160002060008473ffffffffffffffffffffffffffffffffffffffff1673ffffffffffffffffffffffffffffffffffffffff16815260200190815260200160002060006101000a81548160ff0219169083151502179055508173ffffffffffffffffffffffffffffffffffffffff16610f83611388565b73ffffffffffffffffffffffffffffffffffffffff167f17307eab39ab6107e8899845ad3d59bd9653f200f220920489ca2b5937696c3183604051610fc89190612a6a565b60405180910390a35050565b6000610fde6114c1565b60005403905090565b610ff28484846114ca565b6110118373ffffffffffffffffffffffffffffffffffffffff16611c0f565b8015611026575061102484848484611c32565b155b1561105d576040517fd1a57ed600000000000000000000000000000000000000000000000000000000815260040160405180910390fd5b50505050565b606061106e82611390565b6110a4576040517fa14c4b5000000000000000000000000000000000000000000000000000000000815260040160405180910390fd5b6000600980546110b390612d92565b9050141561114b57600a80546110c890612d92565b80601f01602080910402602001604051908101604052809291908181526020018280546110f490612d92565b80156111415780601f1061111657610100808354040283529160200191611141565b820191906000526020600020905b81548152906001019060200180831161112457829003601f168201915b5050505050611177565b600961115683611d92565b6040516020016111679291906129d4565b6040516020818303038152906040525b9050919050565b600c5481565b6000600860008373ffffffffffffffffffffffffffffffffffffffff1673ffffffffffffffffffffffffffffffffffffffff16815260200190815260200160002060009054906101000a900460ff169050919050565b6000600760008473ffffffffffffffffffffffffffffffffffffffff1673ffffffffffffffffffffffffffffffffffffffff16815260200190815260200160002060008373ffffffffffffffffffffffffffffffffffffffff1673ffffffffffffffffffffffffffffffffffffffff16815260200190815260200160002060009054906101000a900460ff16905092915050565b6008600061127a611388565b73ffffffffffffffffffffffffffffffffffffffff1673ffffffffffffffffffffffffffffffffffffffff16815260200190815260200160002060009054906101000a900460ff16611301576040517f08c379a00000000000000000000000000000000000000000000000000000000081526004016112f890612b07565b60405180910390fd5b80600b60006101000a81548160ff02191690831515021790555050565b60007f01ffc9a7000000000000000000000000000000000000000000000000000000007bffffffffffffffffffffffffffffffffffffffffffffffffffffffff1916827bffffffffffffffffffffffffffffffffffffffffffffffffffffffff1916149050919050565b600033905090565b60008161139b6114c1565b111580156113aa575060005482105b80156113d7575060046000838152602001908152602001600020600001601c9054906101000a900460ff16155b9050919050565b826006600084815260200190815260200160002060006101000a81548173ffffffffffffffffffffffffffffffffffffffff021916908373ffffffffffffffffffffffffffffffffffffffff160217905550818373ffffffffffffffffffffffffffffffffffffffff168273ffffffffffffffffffffffffffffffffffffffff167f8c5be1e5ebec7d5bd14f71427d1e84f3dd0314c0f7b2291e5b200ac8c7c3b92560405160405180910390a4505050565b600061149a6114c1565b60005403905090565b6114bd828260405180602001604052806000815250611f3f565b5050565b60006001905090565b60006114d582611980565b90508373ffffffffffffffffffffffffffffffffffffffff16816000015173ffffffffffffffffffffffffffffffffffffffff1614611540576040517fa114810000000000000000000000000000000000000000000000000000000000815260040160405180910390fd5b60008473ffffffffffffffffffffffffffffffffffffffff16611561611388565b73ffffffffffffffffffffffffffffffffffffffff161480611590575061158f8561158a611388565b6111da565b5b806115d5575061159e611388565b73ffffffffffffffffffffffffffffffffffffffff166115bd846107e9565b73ffffffffffffffffffffffffffffffffffffffff16145b90508061160e576040517f59c896be00000000000000000000000000000000000000000000000000000000815260040160405180910390fd5b600073ffffffffffffffffffffffffffffffffffffffff168473ffffffffffffffffffffffffffffffffffffffff161415611675576040517fea553b3400000000000000000000000000000000000000000000000000000000815260040160405180910390fd5b6116828585856001611f51565b61168e600084876113de565b6001600560008773ffffffffffffffffffffffffffffffffffffffff1673ffffffffffffffffffffffffffffffffffffffff16815260200190815260200160002060000160008282829054906101000a900467ffffffffffffffff160392506101000a81548167ffffffffffffffff021916908367ffffffffffffffff1602179055506001600560008673ffffffffffffffffffffffffffffffffffffffff1673ffffffffffffffffffffffffffffffffffffffff16815260200190815260200160002060000160008282829054906101000a900467ffffffffffffffff160192506101000a81548167ffffffffffffffff021916908367ffffffffffffffff1602179055506000600460008581526020019081526020016000209050848160000160006101000a81548173ffffffffffffffffffffffffffffffffffffffff021916908373ffffffffffffffffffffffffffffffffffffffff160217905550428160000160146101000a81548167ffffffffffffffff021916908367ffffffffffffffff16021790555060006001850190506000600460008381526020019081526020016000209050600073ffffffffffffffffffffffffffffffffffffffff168160000160009054906101000a900473ffffffffffffffffffffffffffffffffffffffff1673ffffffffffffffffffffffffffffffffffffffff16141561190e57600054821461190d57878160000160006101000a81548173ffffffffffffffffffffffffffffffffffffffff021916908373ffffffffffffffffffffffffffffffffffffffff16021790555084602001518160000160146101000a81548167ffffffffffffffff021916908367ffffffffffffffff1602179055505b5b505050828473ffffffffffffffffffffffffffffffffffffffff168673ffffffffffffffffffffffffffffffffffffffff167fddf252ad1be2c89b69c2b068fc378daa952ba7f163c4a11628f55a4df523b3ef60405160405180910390a46119798585856001611f57565b5050505050565b6119886123b1565b6000829050806119966114c1565b111580156119a5575060005481105b15611bd8576000600460008381526020019081526020016000206040518060600160405290816000820160009054906101000a900473ffffffffffffffffffffffffffffffffffffffff1673ffffffffffffffffffffffffffffffffffffffff1673ffffffffffffffffffffffffffffffffffffffff1681526020016000820160149054906101000a900467ffffffffffffffff1667ffffffffffffffff1667ffffffffffffffff16815260200160008201601c9054906101000a900460ff16151515158152505090508060400151611bd657600073ffffffffffffffffffffffffffffffffffffffff16816000015173ffffffffffffffffffffffffffffffffffffffff1614611aba578092505050611c0a565b5b600115611bd557818060019003925050600460008381526020019081526020016000206040518060600160405290816000820160009054906101000a900473ffffffffffffffffffffffffffffffffffffffff1673ffffffffffffffffffffffffffffffffffffffff1673ffffffffffffffffffffffffffffffffffffffff1681526020016000820160149054906101000a900467ffffffffffffffff1667ffffffffffffffff1667ffffffffffffffff16815260200160008201601c9054906101000a900460ff1615151515815250509050600073ffffffffffffffffffffffffffffffffffffffff16816000015173ffffffffffffffffffffffffffffffffffffffff1614611bd0578092505050611c0a565b611abb565b5b505b6040517fdf2d9b4200000000000000000000000000000000000000000000000000000000815260040160405180910390fd5b919050565b6000808273ffffffffffffffffffffffffffffffffffffffff163b119050919050565b60008373ffffffffffffffffffffffffffffffffffffffff1663150b7a02611c58611388565b8786866040518563ffffffff1660e01b8152600401611c7a9493929190612a1e565b602060405180830381600087803b158015611c9457600080fd5b505af1925050508015611cc557506040513d601f19601f82011682018060405250810190611cc29190612743565b60015b611d3f573d8060008114611cf5576040519150601f19603f3d011682016040523d82523d6000602084013e611cfa565b606091505b50600081511415611d37576040517fd1a57ed600000000000000000000000000000000000000000000000000000000815260040160405180910390fd5b805181602001fd5b63150b7a0260e01b7bffffffffffffffffffffffffffffffffffffffffffffffffffffffff1916817bffffffffffffffffffffffffffffffffffffffffffffffffffffffff191614915050949350505050565b60606000821415611dda576040518060400160405280600181526020017f30000000000000000000000000000000000000000000000000000000000000008152509050611f3a565b600082905060005b60008214611e0c578080611df590612df5565b915050600a82611e059190612c77565b9150611de2565b60008167ffffffffffffffff811115611e4e577f4e487b7100000000000000000000000000000000000000000000000000000000600052604160045260246000fd5b6040519080825280601f01601f191660200182016040528015611e805781602001600182028036833780820191505090505b5090505b60008514611f3357600182611e999190612ca8565b9150600a85611ea89190612e3e565b6030611eb49190612c21565b60f81b818381518110611ef0577f4e487b7100000000000000000000000000000000000000000000000000000000600052603260045260246000fd5b60200101907effffffffffffffffffffffffffffffffffffffffffffffffffffffffffffff1916908160001a905350600a85611f2c9190612c77565b9450611e84565b8093505050505b919050565b611f4c8383836001611f5d565b505050565b50505050565b50505050565b600080549050600073ffffffffffffffffffffffffffffffffffffffff168573ffffffffffffffffffffffffffffffffffffffff161415611fca576040517f2e07630000000000000000000000000000000000000000000000000000000000815260040160405180910390fd5b6000841415612005576040517fb562e8dd00000000000000000000000000000000000000000000000000000000815260040160405180910390fd5b6120126000868387611f51565b83600560008773ffffffffffffffffffffffffffffffffffffffff1673ffffffffffffffffffffffffffffffffffffffff16815260200190815260200160002060000160008282829054906101000a900467ffffffffffffffff160192506101000a81548167ffffffffffffffff021916908367ffffffffffffffff16021790555083600560008773ffffffffffffffffffffffffffffffffffffffff1673ffffffffffffffffffffffffffffffffffffffff16815260200190815260200160002060000160088282829054906101000a900467ffffffffffffffff160192506101000a81548167ffffffffffffffff021916908367ffffffffffffffff160217905550846004600083815260200190815260200160002060000160006101000a81548173ffffffffffffffffffffffffffffffffffffffff021916908373ffffffffffffffffffffffffffffffffffffffff160217905550426004600083815260200190815260200160002060000160146101000a81548167ffffffffffffffff021916908367ffffffffffffffff1602179055506000819050600085820190508380156121dc57506121db8773ffffffffffffffffffffffffffffffffffffffff16611c0f565b5b156122a2575b818773ffffffffffffffffffffffffffffffffffffffff16600073ffffffffffffffffffffffffffffffffffffffff167fddf252ad1be2c89b69c2b068fc378daa952ba7f163c4a11628f55a4df523b3ef60405160405180910390a46122516000888480600101955088611c32565b612287576040517fd1a57ed600000000000000000000000000000000000000000000000000000000815260040160405180910390fd5b808214156121e257826000541461229d57600080fd5b61230e565b5b818060010192508773ffffffffffffffffffffffffffffffffffffffff16600073ffffffffffffffffffffffffffffffffffffffff167fddf252ad1be2c89b69c2b068fc378daa952ba7f163c4a11628f55a4df523b3ef60405160405180910390a4808214156122a3575b8160008190555050506123246000868387611f57565b5050505050565b82805461233790612d92565b90600052602060002090601f01602090048101928261235957600085556123a0565b82601f1061237257805160ff19168380011785556123a0565b828001600101855582156123a0579182015b8281111561239f578251825591602001919060010190612384565b5b5090506123ad91906123f4565b5090565b6040518060600160405280600073ffffffffffffffffffffffffffffffffffffffff168152602001600067ffffffffffffffff1681526020016000151581525090565b5b8082111561240d5760008160009055506001016123f5565b5090565b600061242461241f84612b67565b612b42565b90508281526020810184848401111561243c57600080fd5b612447848285612d50565b509392505050565b600061246261245d84612b98565b612b42565b90508281526020810184848401111561247a57600080fd5b612485848285612d50565b509392505050565b60008135905061249c8161302f565b92915050565b6000813590506124b181613046565b92915050565b6000813590506124c68161305d565b92915050565b6000815190506124db8161305d565b92915050565b600082601f8301126124f257600080fd5b8135612502848260208601612411565b91505092915050565b600082601f83011261251c57600080fd5b813561252c84826020860161244f565b91505092915050565b60008135905061254481613074565b92915050565b60006020828403121561255c57600080fd5b600061256a8482850161248d565b91505092915050565b6000806040838503121561258657600080fd5b60006125948582860161248d565b92505060206125a58582860161248d565b9150509250929050565b6000806000606084860312156125c457600080fd5b60006125d28682870161248d565b93505060206125e38682870161248d565b92505060406125f486828701612535565b9150509250925092565b6000806000806080858703121561261457600080fd5b60006126228782880161248d565b94505060206126338782880161248d565b935050604061264487828801612535565b925050606085013567ffffffffffffffff81111561266157600080fd5b61266d878288016124e1565b91505092959194509250565b6000806040838503121561268c57600080fd5b600061269a8582860161248d565b92505060206126ab858286016124a2565b9150509250929050565b600080604083850312156126c857600080fd5b60006126d68582860161248d565b92505060206126e785828601612535565b9150509250929050565b60006020828403121561270357600080fd5b6000612711848285016124a2565b91505092915050565b60006020828403121561272c57600080fd5b600061273a848285016124b7565b91505092915050565b60006020828403121561275557600080fd5b6000612763848285016124cc565b91505092915050565b60006020828403121561277e57600080fd5b600082013567ffffffffffffffff81111561279857600080fd5b6127a48482850161250b565b91505092915050565b6000602082840312156127bf57600080fd5b60006127cd84828501612535565b91505092915050565b6127df81612cdc565b82525050565b6127ee81612cee565b82525050565b60006127ff82612bde565b6128098185612bf4565b9350612819818560208601612d5f565b61282281612f2b565b840191505092915050565b600061283882612be9565b6128428185612c05565b9350612852818560208601612d5f565b61285b81612f2b565b840191505092915050565b600061287182612be9565b61287b8185612c16565b935061288b818560208601612d5f565b80840191505092915050565b600081546128a481612d92565b6128ae8186612c16565b945060018216600081146128c957600181146128da5761290d565b60ff1983168652818601935061290d565b6128e385612bc9565b60005b83811015612905578154818901526001820191506020810190506128e6565b838801955050505b50505092915050565b6000612923601683612c05565b915061292e82612f3c565b602082019050919050565b6000612946601783612c05565b915061295182612f65565b602082019050919050565b6000612969601883612c05565b915061297482612f8e565b602082019050919050565b600061298c602983612c05565b915061299782612fb7565b604082019050919050565b60006129af600583612c16565b91506129ba82613006565b600582019050919050565b6129ce81612d46565b82525050565b60006129e08285612897565b91506129ec8284612866565b91506129f7826129a2565b91508190509392505050565b6000602082019050612a1860008301846127d6565b92915050565b6000608082019050612a3360008301876127d6565b612a4060208301866127d6565b612a4d60408301856129c5565b8181036060830152612a5f81846127f4565b905095945050505050565b6000602082019050612a7f60008301846127e5565b92915050565b60006020820190508181036000830152612a9f818461282d565b905092915050565b60006020820190508181036000830152612ac081612916565b9050919050565b60006020820190508181036000830152612ae081612939565b9050919050565b60006020820190508181036000830152612b008161295c565b9050919050565b60006020820190508181036000830152612b208161297f565b9050919050565b6000602082019050612b3c60008301846129c5565b92915050565b6000612b4c612b5d565b9050612b588282612dc4565b919050565b6000604051905090565b600067ffffffffffffffff821115612b8257612b81612efc565b5b612b8b82612f2b565b9050602081019050919050565b600067ffffffffffffffff821115612bb357612bb2612efc565b5b612bbc82612f2b565b9050602081019050919050565b60008190508160005260206000209050919050565b600081519050919050565b600081519050919050565b600082825260208201905092915050565b600082825260208201905092915050565b600081905092915050565b6000612c2c82612d46565b9150612c3783612d46565b9250827fffffffffffffffffffffffffffffffffffffffffffffffffffffffffffffffff03821115612c6c57612c6b612e6f565b5b828201905092915050565b6000612c8282612d46565b9150612c8d83612d46565b925082612c9d57612c9c612e9e565b5b828204905092915050565b6000612cb382612d46565b9150612cbe83612d46565b925082821015612cd157612cd0612e6f565b5b828203905092915050565b6000612ce782612d26565b9050919050565b60008115159050919050565b60007fffffffff0000000000000000000000000000000000000000000000000000000082169050919050565b600073ffffffffffffffffffffffffffffffffffffffff82169050919050565b6000819050919050565b82818337600083830152505050565b60005b83811015612d7d578082015181840152602081019050612d62565b83811115612d8c576000848401525b50505050565b60006002820490506001821680612daa57607f821691505b60208210811415612dbe57612dbd612ecd565b5b50919050565b612dcd82612f2b565b810181811067ffffffffffffffff82111715612dec57612deb612efc565b5b80604052505050565b6000612e0082612d46565b91507fffffffffffffffffffffffffffffffffffffffffffffffffffffffffffffffff821415612e3357612e32612e6f565b5b600182019050919050565b6000612e4982612d46565b9150612e5483612d46565b925082612e6457612e63612e9e565b5b828206905092915050565b7f4e487b7100000000000000000000000000000000000000000000000000000000600052601160045260246000fd5b7f4e487b7100000000000000000000000000000000000000000000000000000000600052601260045260246000fd5b7f4e487b7100000000000000000000000000000000000000000000000000000000600052602260045260246000fd5b7f4e487b7100000000000000000000000000000000000000000000000000000000600052604160045260246000fd5b6000601f19601f8301169050919050565b7f4e6f206d6f726520737570706c7920746f206d696e7400000000000000000000600082015250565b7f4d696e74207072696365206d7573742062652070616964000000000000000000600082015250565b7f4d696e7420686173206e6f742073746172746564207965740000000000000000600082015250565b7f4f776e61626c653a2063616c6c6572206973206e6f742074686520636f6e747260008201527f616374206f776e65720000000000000000000000000000000000000000000000602082015250565b7f2e6a736f6e000000000000000000000000000000000000000000000000000000600082015250565b61303881612cdc565b811461304357600080fd5b50565b61304f81612cee565b811461305a57600080fd5b50565b61306681612cfa565b811461307157600080fd5b50565b61307d81612d46565b811461308857600080fd5b5056fea264697066735822122058682bd21fd8c0e82dd1f295fbced1726c7b6f989ca6df5db9af4328c171bbc464736f6c6343000804003368747470733a2f2f626166796265696479356c7a793264657332733264656268766e687174747633763769356f776a6434766c6b6e61796c61793779346172357261692e697066732e696e667572612d697066732e696f2f",
  "linkReferences": {},
  "deployedLinkReferences": {}
}