{
  "_format": "hh-sol-artifact-1",
  "contractName": "NFT",
  "sourceName": "contracts/NFT.sol",
  "abi": [
    {
      "inputs": [],
      "stateMutability": "nonpayable",
      "type": "constructor"
    },
    {
      "inputs": [],
      "name": "ApprovalCallerNotOwnerNorApproved",
      "type": "error"
    },
    {
      "inputs": [],
      "name": "ApprovalQueryForNonexistentToken",
      "type": "error"
    },
    {
      "inputs": [],
      "name": "ApprovalToCurrentOwner",
      "type": "error"
    },
    {
      "inputs": [],
      "name": "ApproveToCaller",
      "type": "error"
    },
    {
      "inputs": [],
      "name": "BalanceQueryForZeroAddress",
      "type": "error"
    },
    {
      "inputs": [
        {
          "internalType": "bool",
          "name": "mintable",
          "type": "bool"
        },
        {
          "internalType": "string",
          "name": "error",
          "type": "string"
        }
      ],
      "name": "MintNotStarted",
      "type": "error"
    },
    {
      "inputs": [],
      "name": "MintToZeroAddress",
      "type": "error"
    },
    {
      "inputs": [],
      "name": "MintZeroQuantity",
      "type": "error"
    },
    {
      "inputs": [],
      "name": "OwnerQueryForNonexistentToken",
      "type": "error"
    },
    {
      "inputs": [],
      "name": "TransferCallerNotOwnerNorApproved",
      "type": "error"
    },
    {
      "inputs": [],
      "name": "TransferFromIncorrectOwner",
      "type": "error"
    },
    {
      "inputs": [],
      "name": "TransferToNonERC721ReceiverImplementer",
      "type": "error"
    },
    {
      "inputs": [],
      "name": "TransferToZeroAddress",
      "type": "error"
    },
    {
      "inputs": [],
      "name": "URIQueryForNonexistentToken",
      "type": "error"
    },
    {
      "anonymous": false,
      "inputs": [
        {
          "indexed": true,
          "internalType": "address",
          "name": "owner",
          "type": "address"
        },
        {
          "indexed": true,
          "internalType": "address",
          "name": "approved",
          "type": "address"
        },
        {
          "indexed": true,
          "internalType": "uint256",
          "name": "tokenId",
          "type": "uint256"
        }
      ],
      "name": "Approval",
      "type": "event"
    },
    {
      "anonymous": false,
      "inputs": [
        {
          "indexed": true,
          "internalType": "address",
          "name": "owner",
          "type": "address"
        },
        {
          "indexed": true,
          "internalType": "address",
          "name": "operator",
          "type": "address"
        },
        {
          "indexed": false,
          "internalType": "bool",
          "name": "approved",
          "type": "bool"
        }
      ],
      "name": "ApprovalForAll",
      "type": "event"
    },
    {
      "anonymous": false,
      "inputs": [
        {
          "indexed": true,
          "internalType": "address",
          "name": "from",
          "type": "address"
        },
        {
          "indexed": true,
          "internalType": "address",
          "name": "to",
          "type": "address"
        },
        {
          "indexed": true,
          "internalType": "uint256",
          "name": "tokenId",
          "type": "uint256"
        }
      ],
      "name": "Transfer",
      "type": "event"
    },
    {
      "inputs": [
        {
          "internalType": "address",
          "name": "to",
          "type": "address"
        },
        {
          "internalType": "uint256",
          "name": "tokenId",
          "type": "uint256"
        }
      ],
      "name": "approve",
      "outputs": [],
      "stateMutability": "nonpayable",
      "type": "function"
    },
    {
      "inputs": [
        {
          "internalType": "address",
          "name": "owner",
          "type": "address"
        }
      ],
      "name": "balanceOf",
      "outputs": [
        {
          "internalType": "uint256",
          "name": "",
          "type": "uint256"
        }
      ],
      "stateMutability": "view",
      "type": "function"
    },
    {
      "inputs": [
        {
          "internalType": "uint256",
          "name": "tokenId",
          "type": "uint256"
        }
      ],
      "name": "getApproved",
      "outputs": [
        {
          "internalType": "address",
          "name": "",
          "type": "address"
        }
      ],
      "stateMutability": "view",
      "type": "function"
    },
    {
      "inputs": [
        {
          "internalType": "address",
          "name": "owner",
          "type": "address"
        },
        {
          "internalType": "address",
          "name": "operator",
          "type": "address"
        }
      ],
      "name": "isApprovedForAll",
      "outputs": [
        {
          "internalType": "bool",
          "name": "",
          "type": "bool"
        }
      ],
      "stateMutability": "view",
      "type": "function"
    },
    {
      "inputs": [],
      "name": "isMintable",
      "outputs": [
        {
          "internalType": "bool",
          "name": "",
          "type": "bool"
        }
      ],
      "stateMutability": "view",
      "type": "function"
    },
    {
      "inputs": [
        {
          "internalType": "address",
          "name": "_address",
          "type": "address"
        }
      ],
      "name": "isOwner",
      "outputs": [
        {
          "internalType": "bool",
          "name": "",
          "type": "bool"
        }
      ],
      "stateMutability": "view",
      "type": "function"
    },
    {
      "inputs": [],
      "name": "maxSupply",
      "outputs": [
        {
          "internalType": "uint256",
          "name": "",
          "type": "uint256"
        }
      ],
      "stateMutability": "view",
      "type": "function"
    },
    {
      "inputs": [],
      "name": "mint",
      "outputs": [],
      "stateMutability": "payable",
      "type": "function"
    },
    {
      "inputs": [],
      "name": "name",
      "outputs": [
        {
          "internalType": "string",
          "name": "",
          "type": "string"
        }
      ],
      "stateMutability": "view",
      "type": "function"
    },
    {
      "inputs": [
        {
          "internalType": "uint256",
          "name": "tokenId",
          "type": "uint256"
        }
      ],
      "name": "ownerOf",
      "outputs": [
        {
          "internalType": "address",
          "name": "",
          "type": "address"
        }
      ],
      "stateMutability": "view",
      "type": "function"
    },
    {
      "inputs": [
        {
          "internalType": "address",
          "name": "from",
          "type": "address"
        },
        {
          "internalType": "address",
          "name": "to",
          "type": "address"
        },
        {
          "internalType": "uint256",
          "name": "tokenId",
          "type": "uint256"
        }
      ],
      "name": "safeTransferFrom",
      "outputs": [],
      "stateMutability": "nonpayable",
      "type": "function"
    },
    {
      "inputs": [
        {
          "internalType": "address",
          "name": "from",
          "type": "address"
        },
        {
          "internalType": "address",
          "name": "to",
          "type": "address"
        },
        {
          "internalType": "uint256",
          "name": "tokenId",
          "type": "uint256"
        },
        {
          "internalType": "bytes",
          "name": "_data",
          "type": "bytes"
        }
      ],
      "name": "safeTransferFrom",
      "outputs": [],
      "stateMutability": "nonpayable",
      "type": "function"
    },
    {
      "inputs": [
        {
          "internalType": "address",
          "name": "operator",
          "type": "address"
        },
        {
          "internalType": "bool",
          "name": "approved",
          "type": "bool"
        }
      ],
      "name": "setApprovalForAll",
      "outputs": [],
      "stateMutability": "nonpayable",
      "type": "function"
    },
    {
      "inputs": [
        {
          "internalType": "string",
          "name": "baseURI",
          "type": "string"
        }
      ],
      "name": "setBaseURI",
      "outputs": [],
      "stateMutability": "nonpayable",
      "type": "function"
    },
    {
      "inputs": [
        {
          "internalType": "string",
          "name": "nonRevealedTokenURI",
          "type": "string"
        }
      ],
      "name": "setNonRevealedTokenURI",
      "outputs": [],
      "stateMutability": "nonpayable",
      "type": "function"
    },
    {
      "inputs": [
        {
          "internalType": "bytes4",
          "name": "interfaceId",
          "type": "bytes4"
        }
      ],
      "name": "supportsInterface",
      "outputs": [
        {
          "internalType": "bool",
          "name": "",
          "type": "bool"
        }
      ],
      "stateMutability": "view",
      "type": "function"
    },
    {
      "inputs": [],
      "name": "symbol",
      "outputs": [
        {
          "internalType": "string",
          "name": "",
          "type": "string"
        }
      ],
      "stateMutability": "view",
      "type": "function"
    },
    {
      "inputs": [
        {
          "internalType": "bool",
          "name": "mintable",
          "type": "bool"
        }
      ],
      "name": "toggleMintable",
      "outputs": [],
      "stateMutability": "nonpayable",
      "type": "function"
    },
    {
      "inputs": [
        {
          "internalType": "uint256",
          "name": "tokenId",
          "type": "uint256"
        }
      ],
      "name": "tokenURI",
      "outputs": [
        {
          "internalType": "string",
          "name": "",
          "type": "string"
        }
      ],
      "stateMutability": "view",
      "type": "function"
    },
    {
      "inputs": [],
      "name": "totalSupply",
      "outputs": [
        {
          "internalType": "uint256",
          "name": "",
          "type": "uint256"
        }
      ],
      "stateMutability": "view",
      "type": "function"
    },
    {
      "inputs": [
        {
          "internalType": "address",
          "name": "from",
          "type": "address"
        },
        {
          "internalType": "address",
          "name": "to",
          "type": "address"
        },
        {
          "internalType": "uint256",
          "name": "tokenId",
          "type": "uint256"
        }
      ],
      "name": "transferFrom",
      "outputs": [],
      "stateMutability": "nonpayable",
      "type": "function"
    }
  ],
  "bytecode": "0x60806040523480156200001157600080fd5b506040518060400160405280600981526020017f4561737465724e465400000000000000000000000000000000000000000000008152506040518060400160405280600981526020017f4541535445524e465400000000000000000000000000000000000000000000008152508160029080519060200190620000969291906200022c565b508060039080519060200190620000af9291906200022c565b50620000c06200022360201b60201c565b600081905550505060016008600073993c95a0447c7f700ff807995d52ef7579ec155c73ffffffffffffffffffffffffffffffffffffffff1673ffffffffffffffffffffffffffffffffffffffff16815260200190815260200160002060006101000a81548160ff02191690831515021790555060016008600073d36ebd3cf04fd1b022ec71f6d6eb8e1d494fb28873ffffffffffffffffffffffffffffffffffffffff1673ffffffffffffffffffffffffffffffffffffffff16815260200190815260200160002060006101000a81548160ff0219169083151502179055506040518060800160405280605881526020016200304c6058913960099080519060200190620001d19291906200022c565b5060405180602001604052806000815250600a9080519060200190620001f99291906200022c565b506000600b60006101000a81548160ff0219169083151502179055506002600c8190555062000341565b60006001905090565b8280546200023a90620002dc565b90600052602060002090601f0160209004810192826200025e5760008555620002aa565b82601f106200027957805160ff1916838001178555620002aa565b82800160010185558215620002aa579182015b82811115620002a95782518255916020019190600101906200028c565b5b509050620002b99190620002bd565b5090565b5b80821115620002d8576000816000905550600101620002be565b5090565b60006002820490506001821680620002f557607f821691505b602082108114156200030c576200030b62000312565b5b50919050565b7f4e487b7100000000000000000000000000000000000000000000000000000000600052602260045260246000fd5b612cfb80620003516000396000f3fe60806040526004361061012a5760003560e01c806346b45af7116100ab578063a22cb4651161006f578063a22cb465146103e3578063b88d4fde1461040c578063c87b56dd14610435578063d5abeb0114610472578063e985e9c51461049d578063eccfa9fb146104da5761012a565b806346b45af7146102ea57806355f804b3146103155780636352211e1461033e57806370a082311461037b57806395d89b41146103b85761012a565b80631249c58b116100f25780631249c58b1461022657806318160ddd1461023057806323b872dd1461025b5780632f54bf6e1461028457806342842e0e146102c15761012a565b806301ffc9a71461012f57806305c94d9d1461016c57806306fdde0314610195578063081812fc146101c0578063095ea7b3146101fd575b600080fd5b34801561013b57600080fd5b5061015660048036038101906101519190612444565b610503565b604051610163919061274e565b60405180910390f35b34801561017857600080fd5b50610193600480360381019061018e9190612496565b6105e5565b005b3480156101a157600080fd5b506101aa610692565b6040516101b79190612797565b60405180910390f35b3480156101cc57600080fd5b506101e760048036038101906101e291906124d7565b610724565b6040516101f491906126e7565b60405180910390f35b34801561020957600080fd5b50610224600480360381019061021f91906123df565b6107a0565b005b61022e6108ab565b005b34801561023c57600080fd5b5061024561092d565b60405161025291906127d9565b60405180910390f35b34801561026757600080fd5b50610282600480360381019061027d91906122d9565b610944565b005b34801561029057600080fd5b506102ab60048036038101906102a69190612274565b610954565b6040516102b8919061274e565b60405180910390f35b3480156102cd57600080fd5b506102e860048036038101906102e391906122d9565b6109aa565b005b3480156102f657600080fd5b506102ff6109ca565b60405161030c919061274e565b60405180910390f35b34801561032157600080fd5b5061033c60048036038101906103379190612496565b6109dd565b005b34801561034a57600080fd5b50610365600480360381019061036091906124d7565b610a8a565b60405161037291906126e7565b60405180910390f35b34801561038757600080fd5b506103a2600480360381019061039d9190612274565b610aa0565b6040516103af91906127d9565b60405180910390f35b3480156103c457600080fd5b506103cd610b70565b6040516103da9190612797565b60405180910390f35b3480156103ef57600080fd5b5061040a600480360381019061040591906123a3565b610c02565b005b34801561041857600080fd5b50610433600480360381019061042e9190612328565b610d7a565b005b34801561044157600080fd5b5061045c600480360381019061045791906124d7565b610df6565b6040516104699190612797565b60405180910390f35b34801561047e57600080fd5b50610487610f11565b60405161049491906127d9565b60405180910390f35b3480156104a957600080fd5b506104c460048036038101906104bf919061229d565b610f17565b6040516104d1919061274e565b60405180910390f35b3480156104e657600080fd5b5061050160048036038101906104fc919061241b565b610fab565b005b60007f80ac58cd000000000000000000000000000000000000000000000000000000007bffffffffffffffffffffffffffffffffffffffffffffffffffffffff1916827bffffffffffffffffffffffffffffffffffffffffffffffffffffffff191614806105ce57507f5b5e139f000000000000000000000000000000000000000000000000000000007bffffffffffffffffffffffffffffffffffffffffffffffffffffffff1916827bffffffffffffffffffffffffffffffffffffffffffffffffffffffff1916145b806105de57506105dd8261105b565b5b9050919050565b600860006105f16110c5565b73ffffffffffffffffffffffffffffffffffffffff1673ffffffffffffffffffffffffffffffffffffffff16815260200190815260200160002060009054906101000a900460ff16610678576040517f08c379a000000000000000000000000000000000000000000000000000000000815260040161066f906127b9565b60405180910390fd5b80600a908051906020019061068e929190612055565b5050565b6060600280546106a190612a44565b80601f01602080910402602001604051908101604052809291908181526020018280546106cd90612a44565b801561071a5780601f106106ef5761010080835404028352916020019161071a565b820191906000526020600020905b8154815290600101906020018083116106fd57829003601f168201915b5050505050905090565b600061072f826110cd565b610765576040517fcf4700e400000000000000000000000000000000000000000000000000000000815260040160405180910390fd5b6006600083815260200190815260200160002060009054906101000a900473ffffffffffffffffffffffffffffffffffffffff169050919050565b60006107ab82610a8a565b90508073ffffffffffffffffffffffffffffffffffffffff168373ffffffffffffffffffffffffffffffffffffffff161415610813576040517f943f7b8c00000000000000000000000000000000000000000000000000000000815260040160405180910390fd5b8073ffffffffffffffffffffffffffffffffffffffff166108326110c5565b73ffffffffffffffffffffffffffffffffffffffff161415801561086457506108628161085d6110c5565b610f17565b155b1561089b576040517fcfb3b94200000000000000000000000000000000000000000000000000000000815260040160405180910390fd5b6108a683838361111b565b505050565b600b60009054906101000a900460ff1661090b57600b60009054906101000a900460ff166040517f71dcd3750000000000000000000000000000000000000000000000000000000081526004016109029190612769565b60405180910390fd5b600c5461091661092d565b1061092057600080fd5b61092b3360016111cd565b565b60006109376111eb565b6001546000540303905090565b61094f8383836111f4565b505050565b6000600860008373ffffffffffffffffffffffffffffffffffffffff1673ffffffffffffffffffffffffffffffffffffffff16815260200190815260200160002060009054906101000a900460ff169050919050565b6109c583838360405180602001604052806000815250610d7a565b505050565b600b60009054906101000a900460ff1681565b600860006109e96110c5565b73ffffffffffffffffffffffffffffffffffffffff1673ffffffffffffffffffffffffffffffffffffffff16815260200190815260200160002060009054906101000a900460ff16610a70576040517f08c379a0000000000000000000000000000000000000000000000000000000008152600401610a67906127b9565b60405180910390fd5b8060099080519060200190610a86929190612055565b5050565b6000610a95826116aa565b600001519050919050565b60008073ffffffffffffffffffffffffffffffffffffffff168273ffffffffffffffffffffffffffffffffffffffff161415610b08576040517f8f4eb60400000000000000000000000000000000000000000000000000000000815260040160405180910390fd5b600560008373ffffffffffffffffffffffffffffffffffffffff1673ffffffffffffffffffffffffffffffffffffffff16815260200190815260200160002060000160009054906101000a900467ffffffffffffffff1667ffffffffffffffff169050919050565b606060038054610b7f90612a44565b80601f0160208091040260200160405190810160405280929190818152602001828054610bab90612a44565b8015610bf85780601f10610bcd57610100808354040283529160200191610bf8565b820191906000526020600020905b815481529060010190602001808311610bdb57829003601f168201915b5050505050905090565b610c0a6110c5565b73ffffffffffffffffffffffffffffffffffffffff168273ffffffffffffffffffffffffffffffffffffffff161415610c6f576040517fb06307db00000000000000000000000000000000000000000000000000000000815260040160405180910390fd5b8060076000610c7c6110c5565b73ffffffffffffffffffffffffffffffffffffffff1673ffffffffffffffffffffffffffffffffffffffff16815260200190815260200160002060008473ffffffffffffffffffffffffffffffffffffffff1673ffffffffffffffffffffffffffffffffffffffff16815260200190815260200160002060006101000a81548160ff0219169083151502179055508173ffffffffffffffffffffffffffffffffffffffff16610d296110c5565b73ffffffffffffffffffffffffffffffffffffffff167f17307eab39ab6107e8899845ad3d59bd9653f200f220920489ca2b5937696c3183604051610d6e919061274e565b60405180910390a35050565b610d858484846111f4565b610da48373ffffffffffffffffffffffffffffffffffffffff16611939565b8015610db95750610db78484848461195c565b155b15610df0576040517fd1a57ed600000000000000000000000000000000000000000000000000000000815260040160405180910390fd5b50505050565b6060610e01826110cd565b610e37576040517fa14c4b5000000000000000000000000000000000000000000000000000000000815260040160405180910390fd5b600060098054610e4690612a44565b90501415610ede57600a8054610e5b90612a44565b80601f0160208091040260200160405190810160405280929190818152602001828054610e8790612a44565b8015610ed45780601f10610ea957610100808354040283529160200191610ed4565b820191906000526020600020905b815481529060010190602001808311610eb757829003601f168201915b5050505050610f0a565b6009610ee983611abc565b604051602001610efa9291906126b8565b6040516020818303038152906040525b9050919050565b600c5481565b6000600760008473ffffffffffffffffffffffffffffffffffffffff1673ffffffffffffffffffffffffffffffffffffffff16815260200190815260200160002060008373ffffffffffffffffffffffffffffffffffffffff1673ffffffffffffffffffffffffffffffffffffffff16815260200190815260200160002060009054906101000a900460ff16905092915050565b60086000610fb76110c5565b73ffffffffffffffffffffffffffffffffffffffff1673ffffffffffffffffffffffffffffffffffffffff16815260200190815260200160002060009054906101000a900460ff1661103e576040517f08c379a0000000000000000000000000000000000000000000000000000000008152600401611035906127b9565b60405180910390fd5b80600b60006101000a81548160ff02191690831515021790555050565b60007f01ffc9a7000000000000000000000000000000000000000000000000000000007bffffffffffffffffffffffffffffffffffffffffffffffffffffffff1916827bffffffffffffffffffffffffffffffffffffffffffffffffffffffff1916149050919050565b600033905090565b6000816110d86111eb565b111580156110e7575060005482105b8015611114575060046000838152602001908152602001600020600001601c9054906101000a900460ff16155b9050919050565b826006600084815260200190815260200160002060006101000a81548173ffffffffffffffffffffffffffffffffffffffff021916908373ffffffffffffffffffffffffffffffffffffffff160217905550818373ffffffffffffffffffffffffffffffffffffffff168273ffffffffffffffffffffffffffffffffffffffff167f8c5be1e5ebec7d5bd14f71427d1e84f3dd0314c0f7b2291e5b200ac8c7c3b92560405160405180910390a4505050565b6111e7828260405180602001604052806000815250611c69565b5050565b60006001905090565b60006111ff826116aa565b90508373ffffffffffffffffffffffffffffffffffffffff16816000015173ffffffffffffffffffffffffffffffffffffffff161461126a576040517fa114810000000000000000000000000000000000000000000000000000000000815260040160405180910390fd5b60008473ffffffffffffffffffffffffffffffffffffffff1661128b6110c5565b73ffffffffffffffffffffffffffffffffffffffff1614806112ba57506112b9856112b46110c5565b610f17565b5b806112ff57506112c86110c5565b73ffffffffffffffffffffffffffffffffffffffff166112e784610724565b73ffffffffffffffffffffffffffffffffffffffff16145b905080611338576040517f59c896be00000000000000000000000000000000000000000000000000000000815260040160405180910390fd5b600073ffffffffffffffffffffffffffffffffffffffff168473ffffffffffffffffffffffffffffffffffffffff16141561139f576040517fea553b3400000000000000000000000000000000000000000000000000000000815260040160405180910390fd5b6113ac8585856001611c7b565b6113b86000848761111b565b6001600560008773ffffffffffffffffffffffffffffffffffffffff1673ffffffffffffffffffffffffffffffffffffffff16815260200190815260200160002060000160008282829054906101000a900467ffffffffffffffff160392506101000a81548167ffffffffffffffff021916908367ffffffffffffffff1602179055506001600560008673ffffffffffffffffffffffffffffffffffffffff1673ffffffffffffffffffffffffffffffffffffffff16815260200190815260200160002060000160008282829054906101000a900467ffffffffffffffff160192506101000a81548167ffffffffffffffff021916908367ffffffffffffffff1602179055506000600460008581526020019081526020016000209050848160000160006101000a81548173ffffffffffffffffffffffffffffffffffffffff021916908373ffffffffffffffffffffffffffffffffffffffff160217905550428160000160146101000a81548167ffffffffffffffff021916908367ffffffffffffffff16021790555060006001850190506000600460008381526020019081526020016000209050600073ffffffffffffffffffffffffffffffffffffffff168160000160009054906101000a900473ffffffffffffffffffffffffffffffffffffffff1673ffffffffffffffffffffffffffffffffffffffff16141561163857600054821461163757878160000160006101000a81548173ffffffffffffffffffffffffffffffffffffffff021916908373ffffffffffffffffffffffffffffffffffffffff16021790555084602001518160000160146101000a81548167ffffffffffffffff021916908367ffffffffffffffff1602179055505b5b505050828473ffffffffffffffffffffffffffffffffffffffff168673ffffffffffffffffffffffffffffffffffffffff167fddf252ad1be2c89b69c2b068fc378daa952ba7f163c4a11628f55a4df523b3ef60405160405180910390a46116a38585856001611c81565b5050505050565b6116b26120db565b6000829050806116c06111eb565b111580156116cf575060005481105b15611902576000600460008381526020019081526020016000206040518060600160405290816000820160009054906101000a900473ffffffffffffffffffffffffffffffffffffffff1673ffffffffffffffffffffffffffffffffffffffff1673ffffffffffffffffffffffffffffffffffffffff1681526020016000820160149054906101000a900467ffffffffffffffff1667ffffffffffffffff1667ffffffffffffffff16815260200160008201601c9054906101000a900460ff1615151515815250509050806040015161190057600073ffffffffffffffffffffffffffffffffffffffff16816000015173ffffffffffffffffffffffffffffffffffffffff16146117e4578092505050611934565b5b6001156118ff57818060019003925050600460008381526020019081526020016000206040518060600160405290816000820160009054906101000a900473ffffffffffffffffffffffffffffffffffffffff1673ffffffffffffffffffffffffffffffffffffffff1673ffffffffffffffffffffffffffffffffffffffff1681526020016000820160149054906101000a900467ffffffffffffffff1667ffffffffffffffff1667ffffffffffffffff16815260200160008201601c9054906101000a900460ff1615151515815250509050600073ffffffffffffffffffffffffffffffffffffffff16816000015173ffffffffffffffffffffffffffffffffffffffff16146118fa578092505050611934565b6117e5565b5b505b6040517fdf2d9b4200000000000000000000000000000000000000000000000000000000815260040160405180910390fd5b919050565b6000808273ffffffffffffffffffffffffffffffffffffffff163b119050919050565b60008373ffffffffffffffffffffffffffffffffffffffff1663150b7a026119826110c5565b8786866040518563ffffffff1660e01b81526004016119a49493929190612702565b602060405180830381600087803b1580156119be57600080fd5b505af19250505080156119ef57506040513d601f19601f820116820180604052508101906119ec919061246d565b60015b611a69573d8060008114611a1f576040519150601f19603f3d011682016040523d82523d6000602084013e611a24565b606091505b50600081511415611a61576040517fd1a57ed600000000000000000000000000000000000000000000000000000000815260040160405180910390fd5b805181602001fd5b63150b7a0260e01b7bffffffffffffffffffffffffffffffffffffffffffffffffffffffff1916817bffffffffffffffffffffffffffffffffffffffffffffffffffffffff191614915050949350505050565b60606000821415611b04576040518060400160405280600181526020017f30000000000000000000000000000000000000000000000000000000000000008152509050611c64565b600082905060005b60008214611b36578080611b1f90612aa7565b915050600a82611b2f9190612929565b9150611b0c565b60008167ffffffffffffffff811115611b78577f4e487b7100000000000000000000000000000000000000000000000000000000600052604160045260246000fd5b6040519080825280601f01601f191660200182016040528015611baa5781602001600182028036833780820191505090505b5090505b60008514611c5d57600182611bc3919061295a565b9150600a85611bd29190612af0565b6030611bde91906128d3565b60f81b818381518110611c1a577f4e487b7100000000000000000000000000000000000000000000000000000000600052603260045260246000fd5b60200101907effffffffffffffffffffffffffffffffffffffffffffffffffffffffffffff1916908160001a905350600a85611c569190612929565b9450611bae565b8093505050505b919050565b611c768383836001611c87565b505050565b50505050565b50505050565b600080549050600073ffffffffffffffffffffffffffffffffffffffff168573ffffffffffffffffffffffffffffffffffffffff161415611cf4576040517f2e07630000000000000000000000000000000000000000000000000000000000815260040160405180910390fd5b6000841415611d2f576040517fb562e8dd00000000000000000000000000000000000000000000000000000000815260040160405180910390fd5b611d3c6000868387611c7b565b83600560008773ffffffffffffffffffffffffffffffffffffffff1673ffffffffffffffffffffffffffffffffffffffff16815260200190815260200160002060000160008282829054906101000a900467ffffffffffffffff160192506101000a81548167ffffffffffffffff021916908367ffffffffffffffff16021790555083600560008773ffffffffffffffffffffffffffffffffffffffff1673ffffffffffffffffffffffffffffffffffffffff16815260200190815260200160002060000160088282829054906101000a900467ffffffffffffffff160192506101000a81548167ffffffffffffffff021916908367ffffffffffffffff160217905550846004600083815260200190815260200160002060000160006101000a81548173ffffffffffffffffffffffffffffffffffffffff021916908373ffffffffffffffffffffffffffffffffffffffff160217905550426004600083815260200190815260200160002060000160146101000a81548167ffffffffffffffff021916908367ffffffffffffffff160217905550600081905060008582019050838015611f065750611f058773ffffffffffffffffffffffffffffffffffffffff16611939565b5b15611fcc575b818773ffffffffffffffffffffffffffffffffffffffff16600073ffffffffffffffffffffffffffffffffffffffff167fddf252ad1be2c89b69c2b068fc378daa952ba7f163c4a11628f55a4df523b3ef60405160405180910390a4611f7b600088848060010195508861195c565b611fb1576040517fd1a57ed600000000000000000000000000000000000000000000000000000000815260040160405180910390fd5b80821415611f0c578260005414611fc757600080fd5b612038565b5b818060010192508773ffffffffffffffffffffffffffffffffffffffff16600073ffffffffffffffffffffffffffffffffffffffff167fddf252ad1be2c89b69c2b068fc378daa952ba7f163c4a11628f55a4df523b3ef60405160405180910390a480821415611fcd575b81600081905550505061204e6000868387611c81565b5050505050565b82805461206190612a44565b90600052602060002090601f01602090048101928261208357600085556120ca565b82601f1061209c57805160ff19168380011785556120ca565b828001600101855582156120ca579182015b828111156120c95782518255916020019190600101906120ae565b5b5090506120d7919061211e565b5090565b6040518060600160405280600073ffffffffffffffffffffffffffffffffffffffff168152602001600067ffffffffffffffff1681526020016000151581525090565b5b8082111561213757600081600090555060010161211f565b5090565b600061214e61214984612819565b6127f4565b90508281526020810184848401111561216657600080fd5b612171848285612a02565b509392505050565b600061218c6121878461284a565b6127f4565b9050828152602081018484840111156121a457600080fd5b6121af848285612a02565b509392505050565b6000813590506121c681612c69565b92915050565b6000813590506121db81612c80565b92915050565b6000813590506121f081612c97565b92915050565b60008151905061220581612c97565b92915050565b600082601f83011261221c57600080fd5b813561222c84826020860161213b565b91505092915050565b600082601f83011261224657600080fd5b8135612256848260208601612179565b91505092915050565b60008135905061226e81612cae565b92915050565b60006020828403121561228657600080fd5b6000612294848285016121b7565b91505092915050565b600080604083850312156122b057600080fd5b60006122be858286016121b7565b92505060206122cf858286016121b7565b9150509250929050565b6000806000606084860312156122ee57600080fd5b60006122fc868287016121b7565b935050602061230d868287016121b7565b925050604061231e8682870161225f565b9150509250925092565b6000806000806080858703121561233e57600080fd5b600061234c878288016121b7565b945050602061235d878288016121b7565b935050604061236e8782880161225f565b925050606085013567ffffffffffffffff81111561238b57600080fd5b6123978782880161220b565b91505092959194509250565b600080604083850312156123b657600080fd5b60006123c4858286016121b7565b92505060206123d5858286016121cc565b9150509250929050565b600080604083850312156123f257600080fd5b6000612400858286016121b7565b92505060206124118582860161225f565b9150509250929050565b60006020828403121561242d57600080fd5b600061243b848285016121cc565b91505092915050565b60006020828403121561245657600080fd5b6000612464848285016121e1565b91505092915050565b60006020828403121561247f57600080fd5b600061248d848285016121f6565b91505092915050565b6000602082840312156124a857600080fd5b600082013567ffffffffffffffff8111156124c257600080fd5b6124ce84828501612235565b91505092915050565b6000602082840312156124e957600080fd5b60006124f78482850161225f565b91505092915050565b6125098161298e565b82525050565b612518816129a0565b82525050565b600061252982612890565b61253381856128a6565b9350612543818560208601612a11565b61254c81612bdd565b840191505092915050565b60006125628261289b565b61256c81856128b7565b935061257c818560208601612a11565b61258581612bdd565b840191505092915050565b600061259b8261289b565b6125a581856128c8565b93506125b5818560208601612a11565b80840191505092915050565b600081546125ce81612a44565b6125d881866128c8565b945060018216600081146125f3576001811461260457612637565b60ff19831686528186019350612637565b61260d8561287b565b60005b8381101561262f57815481890152600182019150602081019050612610565b838801955050505b50505092915050565b600061264d6005836128c8565b915061265882612bee565b600582019050919050565b60006126706020836128b7565b915061267b82612c17565b602082019050919050565b60006126936014836128b7565b915061269e82612c40565b602082019050919050565b6126b2816129f8565b82525050565b60006126c482856125c1565b91506126d08284612590565b91506126db82612640565b91508190509392505050565b60006020820190506126fc6000830184612500565b92915050565b60006080820190506127176000830187612500565b6127246020830186612500565b61273160408301856126a9565b8181036060830152612743818461251e565b905095945050505050565b6000602082019050612763600083018461250f565b92915050565b600060408201905061277e600083018461250f565b818103602083015261278f81612686565b905092915050565b600060208201905081810360008301526127b18184612557565b905092915050565b600060208201905081810360008301526127d281612663565b9050919050565b60006020820190506127ee60008301846126a9565b92915050565b60006127fe61280f565b905061280a8282612a76565b919050565b6000604051905090565b600067ffffffffffffffff82111561283457612833612bae565b5b61283d82612bdd565b9050602081019050919050565b600067ffffffffffffffff82111561286557612864612bae565b5b61286e82612bdd565b9050602081019050919050565b60008190508160005260206000209050919050565b600081519050919050565b600081519050919050565b600082825260208201905092915050565b600082825260208201905092915050565b600081905092915050565b60006128de826129f8565b91506128e9836129f8565b9250827fffffffffffffffffffffffffffffffffffffffffffffffffffffffffffffffff0382111561291e5761291d612b21565b5b828201905092915050565b6000612934826129f8565b915061293f836129f8565b92508261294f5761294e612b50565b5b828204905092915050565b6000612965826129f8565b9150612970836129f8565b92508282101561298357612982612b21565b5b828203905092915050565b6000612999826129d8565b9050919050565b60008115159050919050565b60007fffffffff0000000000000000000000000000000000000000000000000000000082169050919050565b600073ffffffffffffffffffffffffffffffffffffffff82169050919050565b6000819050919050565b82818337600083830152505050565b60005b83811015612a2f578082015181840152602081019050612a14565b83811115612a3e576000848401525b50505050565b60006002820490506001821680612a5c57607f821691505b60208210811415612a7057612a6f612b7f565b5b50919050565b612a7f82612bdd565b810181811067ffffffffffffffff82111715612a9e57612a9d612bae565b5b80604052505050565b6000612ab2826129f8565b91507fffffffffffffffffffffffffffffffffffffffffffffffffffffffffffffffff821415612ae557612ae4612b21565b5b600182019050919050565b6000612afb826129f8565b9150612b06836129f8565b925082612b1657612b15612b50565b5b828206905092915050565b7f4e487b7100000000000000000000000000000000000000000000000000000000600052601160045260246000fd5b7f4e487b7100000000000000000000000000000000000000000000000000000000600052601260045260246000fd5b7f4e487b7100000000000000000000000000000000000000000000000000000000600052602260045260246000fd5b7f4e487b7100000000000000000000000000000000000000000000000000000000600052604160045260246000fd5b6000601f19601f8301169050919050565b7f2e6a736f6e000000000000000000000000000000000000000000000000000000600082015250565b7f4f776e61626c653a2063616c6c6572206973206e6f7420746865206f776e6572600082015250565b7f4d696e74206e6f74207374617274656420796574000000000000000000000000600082015250565b612c728161298e565b8114612c7d57600080fd5b50565b612c89816129a0565b8114612c9457600080fd5b50565b612ca0816129ac565b8114612cab57600080fd5b50565b612cb7816129f8565b8114612cc257600080fd5b5056fea26469706673582212207afeb86efa0649b76ae10ecd9357e3c26b51d8af3e97e916f8b92ca3e0b3f29e64736f6c6343000804003368747470733a2f2f626166796265696479356c7a793264657332733264656268766e687174747633763769356f776a6434766c6b6e61796c61793779346172357261692e697066732e696e667572612d697066732e696f2f",
  "linkReferences": {},
  "deployedLinkReferences": {}
}